{
  "contractName": "CoachProposal",
  "abi": [
    {
      "inputs": [
        {
          "internalType": "address",
          "name": "_VotingMechanismAddress",
          "type": "address"
        }
      ],
      "stateMutability": "nonpayable",
      "type": "constructor"
    },
    {
      "anonymous": false,
      "inputs": [
        {
          "indexed": false,
          "internalType": "address",
          "name": "sender",
          "type": "address"
        },
        {
          "components": [
            {
              "internalType": "address",
              "name": "ownerAddress",
              "type": "address"
            },
            {
              "internalType": "string",
              "name": "proposalType",
              "type": "string"
            },
            {
              "internalType": "string",
              "name": "candidate",
              "type": "string"
            }
          ],
          "indexed": false,
          "internalType": "struct VotingInterface.Proposal",
          "name": "proposal",
          "type": "tuple"
        }
      ],
      "name": "CoachProposalSent",
      "type": "event"
    },
    {
      "inputs": [],
      "name": "VotingMechanismAddress",
      "outputs": [
        {
          "internalType": "address",
          "name": "",
          "type": "address"
        }
      ],
      "stateMutability": "view",
      "type": "function"
    },
    {
      "inputs": [
        {
          "internalType": "uint256",
          "name": "",
          "type": "uint256"
        }
      ],
      "name": "availableCoaches",
      "outputs": [
        {
          "internalType": "string",
          "name": "name",
          "type": "string"
        },
        {
          "internalType": "bool",
          "name": "hired",
          "type": "bool"
        }
      ],
      "stateMutability": "view",
      "type": "function"
    },
    {
      "inputs": [],
      "name": "proposal",
      "outputs": [
        {
          "internalType": "address",
          "name": "ownerAddress",
          "type": "address"
        },
        {
          "internalType": "string",
          "name": "proposalType",
          "type": "string"
        },
        {
          "internalType": "string",
          "name": "candidate",
          "type": "string"
        }
      ],
      "stateMutability": "view",
      "type": "function"
    },
    {
      "inputs": [],
      "name": "getAvailableCoaches",
      "outputs": [
        {
          "components": [
            {
              "internalType": "string",
              "name": "name",
              "type": "string"
            },
            {
              "internalType": "bool",
              "name": "hired",
              "type": "bool"
            }
          ],
          "internalType": "struct CoachProposal.Coach[]",
          "name": "",
          "type": "tuple[]"
        }
      ],
      "stateMutability": "view",
      "type": "function"
    },
    {
      "inputs": [
        {
          "components": [
            {
              "internalType": "string",
              "name": "name",
              "type": "string"
            },
            {
              "internalType": "bool",
              "name": "hired",
              "type": "bool"
            }
          ],
          "internalType": "struct CoachProposal.Coach",
          "name": "candidate",
          "type": "tuple"
        }
      ],
      "name": "sendCoachProposal",
      "outputs": [],
      "stateMutability": "payable",
      "type": "function"
    }
  ],
  "bytecode": "0x6080604052660e35fa931a00006005553480156200001b575f80fd5b5060405162001cee38038062001cee8339818101604052810190620000419190620002c9565b620000886040518060400160405280600e81526020017f42696c6c2042656c69636869636b0000000000000000000000000000000000008152505f620001ea60201b60201c565b620000cf6040518060400160405280600b81526020017f4672616e6b2052656963680000000000000000000000000000000000000000008152505f620001ea60201b60201c565b620001166040518060400160405280600e81526020017f4a6f7368204d6344616e69656c730000000000000000000000000000000000008152505f620001ea60201b60201c565b6200015d6040518060400160405280600e81526020017f4272616e646f6e205374616c65790000000000000000000000000000000000008152505f620001ea60201b60201c565b620001a46040518060400160405280600b81526020017f4d696b652056726162656c0000000000000000000000000000000000000000008152505f620001ea60201b60201c565b805f806101000a81548173ffffffffffffffffffffffffffffffffffffffff021916908373ffffffffffffffffffffffffffffffffffffffff1602179055505062000641565b60016040518060400160405280848152602001831515815250908060018154018082558091505060019003905f5260205f2090600202015f909190919091505f820151815f0190816200023e91906200055d565b506020820151816001015f6101000a81548160ff02191690831515021790555050505050565b5f80fd5b5f73ffffffffffffffffffffffffffffffffffffffff82169050919050565b5f620002938262000268565b9050919050565b620002a58162000287565b8114620002b0575f80fd5b50565b5f81519050620002c3816200029a565b92915050565b5f60208284031215620002e157620002e062000264565b5b5f620002f084828501620002b3565b91505092915050565b5f81519050919050565b7f4e487b71000000000000000000000000000000000000000000000000000000005f52604160045260245ffd5b7f4e487b71000000000000000000000000000000000000000000000000000000005f52602260045260245ffd5b5f60028204905060018216806200037557607f821691505b6020821081036200038b576200038a62000330565b5b50919050565b5f819050815f5260205f209050919050565b5f6020601f8301049050919050565b5f82821b905092915050565b5f60088302620003ef7fffffffffffffffffffffffffffffffffffffffffffffffffffffffffffffffff82620003b2565b620003fb8683620003b2565b95508019841693508086168417925050509392505050565b5f819050919050565b5f819050919050565b5f620004456200043f620004398462000413565b6200041c565b62000413565b9050919050565b5f819050919050565b620004608362000425565b620004786200046f826200044c565b848454620003be565b825550505050565b5f90565b6200048e62000480565b6200049b81848462000455565b505050565b5b81811015620004c257620004b65f8262000484565b600181019050620004a1565b5050565b601f8211156200051157620004db8162000391565b620004e684620003a3565b81016020851015620004f6578190505b6200050e6200050585620003a3565b830182620004a0565b50505b505050565b5f82821c905092915050565b5f620005335f198460080262000516565b1980831691505092915050565b5f6200054d838362000522565b9150826002028217905092915050565b6200056882620002f9565b67ffffffffffffffff81111562000584576200058362000303565b5b6200059082546200035d565b6200059d828285620004c6565b5f60209050601f831160018114620005d3575f8415620005be578287015190505b620005ca858262000540565b86555062000639565b601f198416620005e38662000391565b5f5b828110156200060c57848901518255600182019150602085019450602081019050620005e5565b868310156200062c578489015162000628601f89168262000522565b8355505b6001600288020188555050505b505050505050565b61169f806200064f5f395ff3fe608060405260043610610049575f3560e01c806346d385981461004d578063482afe2a14610069578063753ec103146100a65780637d3285a8146100d2578063f737a986146100fc575b5f80fd5b61006760048036038101906100629190610b0c565b610126565b005b348015610074575f80fd5b5061008f600480360381019061008a9190610b86565b610320565b60405161009d929190610c3a565b60405180910390f35b3480156100b1575f80fd5b506100ba6103e1565b6040516100c993929190610ca7565b60405180910390f35b3480156100dd575f80fd5b506100e6610523565b6040516100f39190610e36565b60405180910390f35b348015610107575f80fd5b50610110610628565b60405161011d9190610e56565b60405180910390f35b610132815f015161064b565b610171576040517f08c379a000000000000000000000000000000000000000000000000000000000815260040161016890610eb9565b60405180910390fd5b600554341461017e575f80fd5b61018a815f01516106f9565b3360025f015f6101000a81548173ffffffffffffffffffffffffffffffffffffffff021916908373ffffffffffffffffffffffffffffffffffffffff1602179055506040518060400160405280600581526020017f636f6163680000000000000000000000000000000000000000000000000000008152506002600101908161021391906110d1565b506040518060400160405280600b81526020017f4d696b652056726162656c00000000000000000000000000000000000000000081525060028001908161025a91906110d1565b505f8054906101000a900473ffffffffffffffffffffffffffffffffffffffff1673ffffffffffffffffffffffffffffffffffffffff1663de3a9bc73460026040518363ffffffff1660e01b81526004016102b591906112d2565b5f604051808303818588803b1580156102cc575f80fd5b505af11580156102de573d5f803e3d5ffd5b50505050507fc6abe1c15e7070d9a153634882fece4e999569b2b2e41c3665b518b6a8365e403360026040516103159291906112f2565b60405180910390a150565b6001818154811061032f575f80fd5b905f5260205f2090600202015f91509050805f01805461034e90610f04565b80601f016020809104026020016040519081016040528092919081815260200182805461037a90610f04565b80156103c55780601f1061039c576101008083540402835291602001916103c5565b820191905f5260205f20905b8154815290600101906020018083116103a857829003601f168201915b505050505090806001015f9054906101000a900460ff16905082565b6002805f015f9054906101000a900473ffffffffffffffffffffffffffffffffffffffff169080600101805461041690610f04565b80601f016020809104026020016040519081016040528092919081815260200182805461044290610f04565b801561048d5780601f106104645761010080835404028352916020019161048d565b820191905f5260205f20905b81548152906001019060200180831161047057829003601f168201915b5050505050908060020180546104a290610f04565b80601f01602080910402602001604051908101604052809291908181526020018280546104ce90610f04565b80156105195780601f106104f057610100808354040283529160200191610519565b820191905f5260205f20905b8154815290600101906020018083116104fc57829003601f168201915b5050505050905083565b60606001805480602002602001604051908101604052809291908181526020015f905b8282101561061f578382905f5260205f2090600202016040518060400160405290815f8201805461057690610f04565b80601f01602080910402602001604051908101604052809291908181526020018280546105a290610f04565b80156105ed5780601f106105c4576101008083540402835291602001916105ed565b820191905f5260205f20905b8154815290600101906020018083116105d057829003601f168201915b50505050508152602001600182015f9054906101000a900460ff16151515158152505081526020019060010190610546565b50505050905090565b5f8054906101000a900473ffffffffffffffffffffffffffffffffffffffff1681565b5f805f90505b6001805490508110156106ef578260405160200161066f919061135a565b604051602081830303815290604052805190602001206001828154811061069957610698611370565b5b905f5260205f2090600202015f016040516020016106b7919061141d565b60405160208183030381529060405280519060200120036106dc5760019150506106f4565b80806106e790611460565b915050610651565b505f90505b919050565b5f805f90505b60018054905081101561079b578260405160200161071d919061135a565b604051602081830303815290604052805190602001206001828154811061074757610746611370565b5b905f5260205f2090600202015f01604051602001610765919061141d565b60405160208183030381529060405280519060200120036107885780915061079b565b808061079390611460565b9150506106ff565b5060018054905081106107e3576040517f08c379a00000000000000000000000000000000000000000000000000000000081526004016107da906114f1565b60405180910390fd5b60018080805490506107f5919061150f565b8154811061080657610805611370565b5b905f5260205f2090600202016001828154811061082657610825611370565b5b905f5260205f2090600202015f8201815f0190816108449190611557565b50600182015f9054906101000a900460ff16816001015f6101000a81548160ff02191690831515021790555090505060018054806108855761088461163c565b5b600190038181905f5260205f2090600202015f8082015f6108a691906108c1565b600182015f6101000a81549060ff0219169055505090555050565b5080546108cd90610f04565b5f825580601f106108de57506108fb565b601f0160209004905f5260205f20908101906108fa91906108fe565b5b50565b5b80821115610915575f815f9055506001016108ff565b5090565b5f604051905090565b5f80fd5b5f80fd5b5f80fd5b5f601f19601f8301169050919050565b7f4e487b71000000000000000000000000000000000000000000000000000000005f52604160045260245ffd5b6109748261092e565b810181811067ffffffffffffffff821117156109935761099261093e565b5b80604052505050565b5f6109a5610919565b90506109b1828261096b565b919050565b5f80fd5b5f80fd5b5f80fd5b5f67ffffffffffffffff8211156109dc576109db61093e565b5b6109e58261092e565b9050602081019050919050565b828183375f83830152505050565b5f610a12610a0d846109c2565b61099c565b905082815260208101848484011115610a2e57610a2d6109be565b5b610a398482856109f2565b509392505050565b5f82601f830112610a5557610a546109ba565b5b8135610a65848260208601610a00565b91505092915050565b5f8115159050919050565b610a8281610a6e565b8114610a8c575f80fd5b50565b5f81359050610a9d81610a79565b92915050565b5f60408284031215610ab857610ab761092a565b5b610ac2604061099c565b90505f82013567ffffffffffffffff811115610ae157610ae06109b6565b5b610aed84828501610a41565b5f830152506020610b0084828501610a8f565b60208301525092915050565b5f60208284031215610b2157610b20610922565b5b5f82013567ffffffffffffffff811115610b3e57610b3d610926565b5b610b4a84828501610aa3565b91505092915050565b5f819050919050565b610b6581610b53565b8114610b6f575f80fd5b50565b5f81359050610b8081610b5c565b92915050565b5f60208284031215610b9b57610b9a610922565b5b5f610ba884828501610b72565b91505092915050565b5f81519050919050565b5f82825260208201905092915050565b5f5b83811015610be8578082015181840152602081019050610bcd565b5f8484015250505050565b5f610bfd82610bb1565b610c078185610bbb565b9350610c17818560208601610bcb565b610c208161092e565b840191505092915050565b610c3481610a6e565b82525050565b5f6040820190508181035f830152610c528185610bf3565b9050610c616020830184610c2b565b9392505050565b5f73ffffffffffffffffffffffffffffffffffffffff82169050919050565b5f610c9182610c68565b9050919050565b610ca181610c87565b82525050565b5f606082019050610cba5f830186610c98565b8181036020830152610ccc8185610bf3565b90508181036040830152610ce08184610bf3565b9050949350505050565b5f81519050919050565b5f82825260208201905092915050565b5f819050602082019050919050565b5f82825260208201905092915050565b5f610d2d82610bb1565b610d378185610d13565b9350610d47818560208601610bcb565b610d508161092e565b840191505092915050565b610d6481610a6e565b82525050565b5f604083015f8301518482035f860152610d848282610d23565b9150506020830151610d996020860182610d5b565b508091505092915050565b5f610daf8383610d6a565b905092915050565b5f602082019050919050565b5f610dcd82610cea565b610dd78185610cf4565b935083602082028501610de985610d04565b805f5b85811015610e245784840389528151610e058582610da4565b9450610e1083610db7565b925060208a01995050600181019050610dec565b50829750879550505050505092915050565b5f6020820190508181035f830152610e4e8184610dc3565b905092915050565b5f602082019050610e695f830184610c98565b92915050565b7f436f616368206973206e6f7420617661696c61626c6520746f206869726500005f82015250565b5f610ea3601e83610bbb565b9150610eae82610e6f565b602082019050919050565b5f6020820190508181035f830152610ed081610e97565b9050919050565b7f4e487b71000000000000000000000000000000000000000000000000000000005f52602260045260245ffd5b5f6002820490506001821680610f1b57607f821691505b602082108103610f2e57610f2d610ed7565b5b50919050565b5f819050815f5260205f209050919050565b5f6020601f8301049050919050565b5f82821b905092915050565b5f60088302610f907fffffffffffffffffffffffffffffffffffffffffffffffffffffffffffffffff82610f55565b610f9a8683610f55565b95508019841693508086168417925050509392505050565b5f819050919050565b5f610fd5610fd0610fcb84610b53565b610fb2565b610b53565b9050919050565b5f819050919050565b610fee83610fbb565b611002610ffa82610fdc565b848454610f61565b825550505050565b5f90565b61101661100a565b611021818484610fe5565b505050565b5b81811015611044576110395f8261100e565b600181019050611027565b5050565b601f8211156110895761105a81610f34565b61106384610f46565b81016020851015611072578190505b61108661107e85610f46565b830182611026565b50505b505050565b5f82821c905092915050565b5f6110a95f198460080261108e565b1980831691505092915050565b5f6110c1838361109a565b9150826002028217905092915050565b6110da82610bb1565b67ffffffffffffffff8111156110f3576110f261093e565b5b6110fd8254610f04565b611108828285611048565b5f60209050601f831160018114611139575f8415611127578287015190505b61113185826110b6565b865550611198565b601f19841661114786610f34565b5f5b8281101561116e57848901518255600182019150602085019450602081019050611149565b8683101561118b5784890151611187601f89168261109a565b8355505b6001600288020188555050505b505050505050565b5f815f1c9050919050565b5f73ffffffffffffffffffffffffffffffffffffffff82169050919050565b5f6111dc6111d7836111a0565b6111ab565b9050919050565b6111ec81610c87565b82525050565b5f81546111fe81610f04565b6112088186610d13565b9450600182165f811461122257600181146112385761126a565b60ff19831686528115156020028601935061126a565b61124185610f34565b5f5b8381101561126257815481890152600182019150602081019050611243565b808801955050505b50505092915050565b5f606083015f808401549050611288816111ca565b6112945f8701826111e3565b506001840185830360208701526112ab83826111f2565b9250506002840185830360408701526112c483826111f2565b925050819250505092915050565b5f6020820190508181035f8301526112ea8184611273565b905092915050565b5f6040820190506113055f830185610c98565b81810360208301526113178184611273565b90509392505050565b5f81905092915050565b5f61133482610bb1565b61133e8185611320565b935061134e818560208601610bcb565b80840191505092915050565b5f611365828461132a565b915081905092915050565b7f4e487b71000000000000000000000000000000000000000000000000000000005f52603260045260245ffd5b5f81546113a981610f04565b6113b38186611320565b9450600182165f81146113cd57600181146113e257611414565b60ff1983168652811515820286019350611414565b6113eb85610f34565b5f5b8381101561140c578154818901526001820191506020810190506113ed565b838801955050505b50505092915050565b5f611428828461139d565b915081905092915050565b7f4e487b71000000000000000000000000000000000000000000000000000000005f52601160045260245ffd5b5f61146a82610b53565b91507fffffffffffffffffffffffffffffffffffffffffffffffffffffffffffffffff820361149c5761149b611433565b5b600182019050919050565b7f496e646578206f7574206f6620626f756e6473000000000000000000000000005f82015250565b5f6114db601383610bbb565b91506114e6826114a7565b602082019050919050565b5f6020820190508181035f830152611508816114cf565b9050919050565b5f61151982610b53565b915061152483610b53565b925082820390508181111561153c5761153b611433565b5b92915050565b5f8154905061155081610f04565b9050919050565b81810361156557505061163a565b61156e82611542565b67ffffffffffffffff8111156115875761158661093e565b5b6115918254610f04565b61159c828285611048565b5f601f8311600181146115c9575f84156115b7578287015490505b6115c185826110b6565b865550611633565b601f1984166115d787610f34565b96506115e286610f34565b5f5b82811015611609578489015482556001820191506001850194506020810190506115e4565b868310156116265784890154611622601f89168261109a565b8355505b6001600288020188555050505b5050505050505b565b7f4e487b71000000000000000000000000000000000000000000000000000000005f52603160045260245ffdfea26469706673582212205a027a38ecef152984f0aef5f6be3f471807a70968c0768a32cc7c8fcf19527464736f6c63430008150033",
  "immutableReferences": {},
  "source": "// SPDX-License-Identifier: UNLICENSED\r\npragma solidity ^0.8.19;\r\n\r\nimport \"./CoachVotingMechanism.sol\";\r\nimport \"./VotingInterface.sol\";\r\n\r\ncontract CoachProposal {\r\n\r\n    address public VotingMechanismAddress;\r\n\r\n    constructor(address _VotingMechanismAddress) {\r\n        addAvailableCoach(\"Bill Belichick\", false);\r\n        addAvailableCoach(\"Frank Reich\", false);\r\n        addAvailableCoach(\"Josh McDaniels\", false);\r\n        addAvailableCoach(\"Brandon Staley\", false);\r\n        addAvailableCoach(\"Mike Vrabel\", false);\r\n\r\n        VotingMechanismAddress = _VotingMechanismAddress;\r\n    }\r\n\r\n    struct Coach {\r\n        string name;\r\n        bool hired;\r\n    }\r\n\r\n    // array of head coach candidates\r\n    Coach[] public availableCoaches;\r\n\r\n    function addAvailableCoach(string memory _name, bool _hired) private {\r\n        availableCoaches.push(Coach(_name,_hired));\r\n    }\r\n\r\n    function removeCoach(string memory _name) private {\r\n        uint index;\r\n        for (uint i = 0; i < availableCoaches.length; i++) {\r\n            if (keccak256(abi.encodePacked(availableCoaches[i].name)) == keccak256(abi.encodePacked(_name))) {\r\n                index = i;\r\n                break;\r\n            }\r\n        }\r\n        \r\n        require(index < availableCoaches.length, \"Index out of bounds\");\r\n\r\n        availableCoaches[index] = availableCoaches[availableCoaches.length - 1];\r\n        availableCoaches.pop();\r\n    }\r\n\r\n    // a user wanting to make a proposal would have to see who the available choices are\r\n    function getAvailableCoaches() external view returns (Coach[] memory) {\r\n        return availableCoaches;\r\n    }\r\n\r\n    VotingInterface.Proposal public proposal; // using shared proposal struct in interface so both contracts can see it\r\n    uint proposalFee = 0.004 ether; // costs 4 MVCs to submit a proposal\r\n    event CoachProposalSent(address sender, VotingInterface.Proposal proposal);\r\n\r\n    // sends a CoachProposal to the VotingMechanism\r\n    // costs 4 MVC coins to execute (0.004 ether)\r\n    function sendCoachProposal(Coach memory candidate) external payable {\r\n        require(isCoachAvailable(candidate.name), \"Coach is not available to hire\");\r\n        require(msg.value == proposalFee);\r\n\r\n        removeCoach(candidate.name);\r\n\r\n        proposal.ownerAddress = msg.sender;\r\n        proposal.proposalType = \"coach\";\r\n        proposal.candidate = \"Mike Vrabel\";\r\n\r\n        CoachVotingMechanism(VotingMechanismAddress).receiveCoachProposal{value:msg.value}(proposal);\r\n\r\n        emit CoachProposalSent(msg.sender, proposal);\r\n    }\r\n\r\n    function isCoachAvailable(string memory _name) private view returns (bool) {\r\n        for (uint i = 0; i < availableCoaches.length; i++) {\r\n            if (keccak256(abi.encodePacked(availableCoaches[i].name)) == keccak256(abi.encodePacked(_name))) {\r\n                return true;\r\n            }\r\n        }\r\n        return false;\r\n    }\r\n}",
  "sourcePath": "C:\\Users\\cooki\\OneDrive\\Documents\\Metro State Stuff\\690-Blockchain\\ics670-mn-vikings-dapp\\contracts\\CoachProposal.sol",
  "compiler": {
    "name": "solc",
    "version": "0.8.21+commit.d9974bed.Emscripten.clang"
  },
  "schemaVersion": "3.4.16",
  "updatedAt": "2024-03-04T06:07:22.407Z",
  "devdoc": {
    "kind": "dev",
    "methods": {},
    "version": 1
  },
  "userdoc": {
    "kind": "user",
    "methods": {},
    "version": 1
  }
}