{
  "contractName": "CoachVotingMechanism",
  "abi": [
    {
      "anonymous": false,
      "inputs": [
        {
          "indexed": false,
          "internalType": "address",
          "name": "sender",
          "type": "address"
        },
        {
          "components": [
            {
              "internalType": "address",
              "name": "ownerAddress",
              "type": "address"
            },
            {
              "internalType": "string",
              "name": "proposalType",
              "type": "string"
            },
            {
              "internalType": "string",
              "name": "candidate",
              "type": "string"
            }
          ],
          "indexed": false,
          "internalType": "struct VotingInterface.Proposal",
          "name": "proposal",
          "type": "tuple"
        }
      ],
      "name": "CoachProposalReceived",
      "type": "event"
    },
    {
      "anonymous": false,
      "inputs": [
        {
          "indexed": false,
          "internalType": "address",
          "name": "sender",
          "type": "address"
        },
        {
          "components": [
            {
              "internalType": "address",
              "name": "ownerAddress",
              "type": "address"
            },
            {
              "internalType": "string",
              "name": "proposalType",
              "type": "string"
            },
            {
              "internalType": "string",
              "name": "candidate",
              "type": "string"
            }
          ],
          "indexed": false,
          "internalType": "struct VotingInterface.CoachVote",
          "name": "vote",
          "type": "tuple"
        }
      ],
      "name": "CoachVoteReceived",
      "type": "event"
    },
    {
      "inputs": [
        {
          "internalType": "uint256",
          "name": "",
          "type": "uint256"
        }
      ],
      "name": "candidateNames",
      "outputs": [
        {
          "internalType": "string",
          "name": "",
          "type": "string"
        }
      ],
      "stateMutability": "view",
      "type": "function"
    },
    {
      "inputs": [
        {
          "internalType": "uint256",
          "name": "",
          "type": "uint256"
        }
      ],
      "name": "coachingCandidates",
      "outputs": [
        {
          "components": [
            {
              "internalType": "address",
              "name": "ownerAddress",
              "type": "address"
            },
            {
              "internalType": "string",
              "name": "proposalType",
              "type": "string"
            },
            {
              "internalType": "string",
              "name": "candidate",
              "type": "string"
            }
          ],
          "internalType": "struct VotingInterface.Proposal",
          "name": "proposal",
          "type": "tuple"
        },
        {
          "internalType": "uint256",
          "name": "numOfVotes",
          "type": "uint256"
        }
      ],
      "stateMutability": "view",
      "type": "function"
    },
    {
      "inputs": [],
      "name": "getCoachingCandidates",
      "outputs": [
        {
          "internalType": "string[]",
          "name": "",
          "type": "string[]"
        }
      ],
      "stateMutability": "view",
      "type": "function"
    },
    {
      "inputs": [
        {
          "components": [
            {
              "internalType": "address",
              "name": "ownerAddress",
              "type": "address"
            },
            {
              "internalType": "string",
              "name": "proposalType",
              "type": "string"
            },
            {
              "internalType": "string",
              "name": "candidate",
              "type": "string"
            }
          ],
          "internalType": "struct VotingInterface.Proposal",
          "name": "proposal",
          "type": "tuple"
        }
      ],
      "name": "receiveCoachProposal",
      "outputs": [],
      "stateMutability": "payable",
      "type": "function"
    },
    {
      "inputs": [
        {
          "components": [
            {
              "internalType": "address",
              "name": "ownerAddress",
              "type": "address"
            },
            {
              "internalType": "string",
              "name": "proposalType",
              "type": "string"
            },
            {
              "internalType": "string",
              "name": "candidate",
              "type": "string"
            }
          ],
          "internalType": "struct VotingInterface.CoachVote",
          "name": "coachVote",
          "type": "tuple"
        }
      ],
      "name": "receiveCoachVote",
      "outputs": [],
      "stateMutability": "payable",
      "type": "function"
    }
  ],
  "bytecode": "0x608060405234801561000f575f80fd5b506114c18061001d5f395ff3fe608060405260043610610049575f3560e01c8063451118241461004d5780635b2745921461008a5780638287e42f146100a657806397bad024146100e2578063de3a9bc71461010c575b5f80fd5b348015610058575f80fd5b50610073600480360381019061006e91906108d8565b610128565b604051610081929190610a2f565b60405180910390f35b6100a4600480360381019061009f9190610c54565b6102d5565b005b3480156100b1575f80fd5b506100cc60048036038101906100c791906108d8565b6104d9565b6040516100d99190610ce3565b60405180910390f35b3480156100ed575f80fd5b506100f661057f565b6040516101039190610dbe565b60405180910390f35b61012660048036038101906101219190610e77565b610653565b005b60028181548110610137575f80fd5b905f5260205f2090600402015f91509050805f016040518060600160405290815f82015f9054906101000a900473ffffffffffffffffffffffffffffffffffffffff1673ffffffffffffffffffffffffffffffffffffffff1673ffffffffffffffffffffffffffffffffffffffff1681526020016001820180546101ba90610eeb565b80601f01602080910402602001604051908101604052809291908181526020018280546101e690610eeb565b80156102315780601f1061020857610100808354040283529160200191610231565b820191905f5260205f20905b81548152906001019060200180831161021457829003601f168201915b5050505050815260200160028201805461024a90610eeb565b80601f016020809104026020016040519081016040528092919081815260200182805461027690610eeb565b80156102c15780601f10610298576101008083540402835291602001916102c1565b820191905f5260205f20905b8154815290600101906020018083116102a457829003601f168201915b505050505081525050908060030154905082565b3373ffffffffffffffffffffffffffffffffffffffff16815f015173ffffffffffffffffffffffffffffffffffffffff161461030f575f80fd5b60405160200161031e90610f6f565b6040516020818303038152906040528051906020012081602001516040516020016103499190610fb3565b6040516020818303038152906040528051906020012014610368575f80fd5b61037581604001516107c1565b61037d575f80fd5b5f816040015190505f5b60028054905081101561048157816040516020016103a59190610fb3565b60405160208183030381529060405280519060200120600282815481106103cf576103ce610fc9565b5b905f5260205f2090600402015f016002016040516020016103f09190611088565b604051602081830303815290604052805190602001200361046e5761044260016002838154811061042457610423610fc9565b5b905f5260205f2090600402016003015461086990919063ffffffff16565b6002828154811061045657610455610fc9565b5b905f5260205f20906004020160030181905550610481565b8080610479906110cb565b915050610387565b5061049760015f5461086990919063ffffffff16565b5f819055507fca334562d0af680d4a18e0bba98d38942a503a711b7825849df710dda347a0d633836040516104cd929190611175565b60405180910390a15050565b600381815481106104e8575f80fd5b905f5260205f20015f91509050805461050090610eeb565b80601f016020809104026020016040519081016040528092919081815260200182805461052c90610eeb565b80156105775780601f1061054e57610100808354040283529160200191610577565b820191905f5260205f20905b81548152906001019060200180831161055a57829003601f168201915b505050505081565b60606003805480602002602001604051908101604052809291908181526020015f905b8282101561064a578382905f5260205f200180546105bf90610eeb565b80601f01602080910402602001604051908101604052809291908181526020018280546105eb90610eeb565b80156106365780601f1061060d57610100808354040283529160200191610636565b820191905f5260205f20905b81548152906001019060200180831161061957829003601f168201915b5050505050815260200190600101906105a2565b50505050905090565b3373ffffffffffffffffffffffffffffffffffffffff16815f015173ffffffffffffffffffffffffffffffffffffffff161461068d575f80fd5b600260405180604001604052808381526020015f815250908060018154018082558091505060019003905f5260205f2090600402015f909190919091505f820151815f015f820151815f015f6101000a81548173ffffffffffffffffffffffffffffffffffffffff021916908373ffffffffffffffffffffffffffffffffffffffff160217905550602082015181600101908161072a919061132e565b506040820151816002019081610740919061132e565b50505060208201518160030155505060038160400151908060018154018082558091505060019003905f5260205f20015f909190919091509081610784919061132e565b507fe897fe1af066184eb455ad8f39cc1aa4740b69620b852611ae7c12bf948a086e33826040516107b69291906113fd565b60405180910390a150565b5f805f90505f5b60038054905081101561085f57600381815481106107e9576107e8610fc9565b5b905f5260205f20016040516020016108019190611088565b60405160208183030381529060405280519060200120846040516020016108289190610fb3565b604051602081830303815290604052805190602001200361084c576001915061085f565b8080610857906110cb565b9150506107c8565b5080915050919050565b5f808284610877919061142b565b90508381101561088a5761088961145e565b5b8091505092915050565b5f604051905090565b5f80fd5b5f80fd5b5f819050919050565b6108b7816108a5565b81146108c1575f80fd5b50565b5f813590506108d2816108ae565b92915050565b5f602082840312156108ed576108ec61089d565b5b5f6108fa848285016108c4565b91505092915050565b5f73ffffffffffffffffffffffffffffffffffffffff82169050919050565b5f61092c82610903565b9050919050565b61093c81610922565b82525050565b5f81519050919050565b5f82825260208201905092915050565b5f5b8381101561097957808201518184015260208101905061095e565b5f8484015250505050565b5f601f19601f8301169050919050565b5f61099e82610942565b6109a8818561094c565b93506109b881856020860161095c565b6109c181610984565b840191505092915050565b5f606083015f8301516109e15f860182610933565b50602083015184820360208601526109f98282610994565b91505060408301518482036040860152610a138282610994565b9150508091505092915050565b610a29816108a5565b82525050565b5f6040820190508181035f830152610a4781856109cc565b9050610a566020830184610a20565b9392505050565b5f80fd5b7f4e487b71000000000000000000000000000000000000000000000000000000005f52604160045260245ffd5b610a9782610984565b810181811067ffffffffffffffff82111715610ab657610ab5610a61565b5b80604052505050565b5f610ac8610894565b9050610ad48282610a8e565b919050565b5f80fd5b610ae681610922565b8114610af0575f80fd5b50565b5f81359050610b0181610add565b92915050565b5f80fd5b5f80fd5b5f67ffffffffffffffff821115610b2957610b28610a61565b5b610b3282610984565b9050602081019050919050565b828183375f83830152505050565b5f610b5f610b5a84610b0f565b610abf565b905082815260208101848484011115610b7b57610b7a610b0b565b5b610b86848285610b3f565b509392505050565b5f82601f830112610ba257610ba1610b07565b5b8135610bb2848260208601610b4d565b91505092915050565b5f60608284031215610bd057610bcf610a5d565b5b610bda6060610abf565b90505f610be984828501610af3565b5f83015250602082013567ffffffffffffffff811115610c0c57610c0b610ad9565b5b610c1884828501610b8e565b602083015250604082013567ffffffffffffffff811115610c3c57610c3b610ad9565b5b610c4884828501610b8e565b60408301525092915050565b5f60208284031215610c6957610c6861089d565b5b5f82013567ffffffffffffffff811115610c8657610c856108a1565b5b610c9284828501610bbb565b91505092915050565b5f82825260208201905092915050565b5f610cb582610942565b610cbf8185610c9b565b9350610ccf81856020860161095c565b610cd881610984565b840191505092915050565b5f6020820190508181035f830152610cfb8184610cab565b905092915050565b5f81519050919050565b5f82825260208201905092915050565b5f819050602082019050919050565b5f610d378383610994565b905092915050565b5f602082019050919050565b5f610d5582610d03565b610d5f8185610d0d565b935083602082028501610d7185610d1d565b805f5b85811015610dac5784840389528151610d8d8582610d2c565b9450610d9883610d3f565b925060208a01995050600181019050610d74565b50829750879550505050505092915050565b5f6020820190508181035f830152610dd68184610d4b565b905092915050565b5f60608284031215610df357610df2610a5d565b5b610dfd6060610abf565b90505f610e0c84828501610af3565b5f83015250602082013567ffffffffffffffff811115610e2f57610e2e610ad9565b5b610e3b84828501610b8e565b602083015250604082013567ffffffffffffffff811115610e5f57610e5e610ad9565b5b610e6b84828501610b8e565b60408301525092915050565b5f60208284031215610e8c57610e8b61089d565b5b5f82013567ffffffffffffffff811115610ea957610ea86108a1565b5b610eb584828501610dde565b91505092915050565b7f4e487b71000000000000000000000000000000000000000000000000000000005f52602260045260245ffd5b5f6002820490506001821680610f0257607f821691505b602082108103610f1557610f14610ebe565b5b50919050565b5f81905092915050565b7f636f6163680000000000000000000000000000000000000000000000000000005f82015250565b5f610f59600583610f1b565b9150610f6482610f25565b600582019050919050565b5f610f7982610f4d565b9150819050919050565b5f610f8d82610942565b610f978185610f1b565b9350610fa781856020860161095c565b80840191505092915050565b5f610fbe8284610f83565b915081905092915050565b7f4e487b71000000000000000000000000000000000000000000000000000000005f52603260045260245ffd5b5f819050815f5260205f209050919050565b5f815461101481610eeb565b61101e8186610f1b565b9450600182165f8114611038576001811461104d5761107f565b60ff198316865281151582028601935061107f565b61105685610ff6565b5f5b8381101561107757815481890152600182019150602081019050611058565b838801955050505b50505092915050565b5f6110938284611008565b915081905092915050565b7f4e487b71000000000000000000000000000000000000000000000000000000005f52601160045260245ffd5b5f6110d5826108a5565b91507fffffffffffffffffffffffffffffffffffffffffffffffffffffffffffffffff82036111075761110661109e565b5b600182019050919050565b61111b81610922565b82525050565b5f606083015f8301516111365f860182610933565b506020830151848203602086015261114e8282610994565b915050604083015184820360408601526111688282610994565b9150508091505092915050565b5f6040820190506111885f830185611112565b818103602083015261119a8184611121565b90509392505050565b5f6020601f8301049050919050565b5f82821b905092915050565b5f600883026111ed7fffffffffffffffffffffffffffffffffffffffffffffffffffffffffffffffff826111b2565b6111f786836111b2565b95508019841693508086168417925050509392505050565b5f819050919050565b5f61123261122d611228846108a5565b61120f565b6108a5565b9050919050565b5f819050919050565b61124b83611218565b61125f61125782611239565b8484546111be565b825550505050565b5f90565b611273611267565b61127e818484611242565b505050565b5b818110156112a1576112965f8261126b565b600181019050611284565b5050565b601f8211156112e6576112b781610ff6565b6112c0846111a3565b810160208510156112cf578190505b6112e36112db856111a3565b830182611283565b50505b505050565b5f82821c905092915050565b5f6113065f19846008026112eb565b1980831691505092915050565b5f61131e83836112f7565b9150826002028217905092915050565b61133782610942565b67ffffffffffffffff8111156113505761134f610a61565b5b61135a8254610eeb565b6113658282856112a5565b5f60209050601f831160018114611396575f8415611384578287015190505b61138e8582611313565b8655506113f5565b601f1984166113a486610ff6565b5f5b828110156113cb578489015182556001820191506020850194506020810190506113a6565b868310156113e857848901516113e4601f8916826112f7565b8355505b6001600288020188555050505b505050505050565b5f6040820190506114105f830185611112565b818103602083015261142281846109cc565b90509392505050565b5f611435826108a5565b9150611440836108a5565b92508282019050808211156114585761145761109e565b5b92915050565b7f4e487b71000000000000000000000000000000000000000000000000000000005f52600160045260245ffdfea2646970667358221220d5c428dc7de9a2df4e1aad3ea7cfedd474fd65150dd7870ee8d35c1849adaf5164736f6c63430008150033",
  "immutableReferences": {},
  "source": "// SPDX-License-Identifier: UNLICENSED\r\npragma solidity ^0.8.19;\r\n\r\nimport \"./safemath.sol\";\r\nimport \"./VotingInterface.sol\";\r\n\r\ncontract CoachVotingMechanism {\r\n\r\n    using SafeMath for uint;\r\n\r\n    uint totalVotes;\r\n    uint totalMVCs;\r\n\r\n    // struct of proposals and corresponding votes\r\n    struct ProposalAndVotes {\r\n        VotingInterface.Proposal proposal;\r\n        uint numOfVotes;\r\n    }\r\n\r\n    // an array of the ProposalAndVotes objects\r\n    ProposalAndVotes[] public coachingCandidates;\r\n\r\n    // an array of names making it easier to verify and show to voters - abstracting away owner and vote count, voter will just see the candidate names\r\n    string[] public candidateNames;\r\n\r\n    // events verifying that proposals and votes were received\r\n    event CoachProposalReceived(address sender, VotingInterface.Proposal proposal);\r\n    event CoachVoteReceived(address sender, VotingInterface.CoachVote vote);\r\n\r\n    // gets coaching candidates for voters to see\r\n    function getCoachingCandidates() external view returns (string[] memory) {\r\n        return candidateNames;\r\n    }\r\n\r\n    // checking that address of sender is valid\r\n    // adds proposal to array of coachingCandidates - initializes number of votes to 0\r\n    // adds name of candidate to candidateNames\r\n    // emitting event that proposal was received\r\n    function receiveCoachProposal(VotingInterface.Proposal memory proposal) external payable {\r\n        require(proposal.ownerAddress == msg.sender);\r\n        coachingCandidates.push(ProposalAndVotes(proposal,0));\r\n        candidateNames.push(proposal.candidate);\r\n\r\n        emit CoachProposalReceived(msg.sender, proposal);\r\n    }\r\n\r\n    // checking that address of sender is valid\r\n    // checking that type of vote is 'coach'\r\n    // check that the voter's choice is valid\r\n    // incrementing the number of votes for the coach candidate\r\n    // emitting event that vote was received\r\n    function receiveCoachVote(VotingInterface.CoachVote memory coachVote) external payable {\r\n        require(coachVote.ownerAddress == msg.sender);\r\n        require(keccak256(abi.encodePacked(coachVote.proposalType)) == keccak256(abi.encodePacked('coach')));\r\n        require(verifyVote(coachVote.candidate));\r\n\r\n        string memory voteCandidate = coachVote.candidate; // name of the candidate person voted for\r\n\r\n        for (uint i=0; i<coachingCandidates.length; i++){\r\n            if (keccak256(abi.encodePacked(coachingCandidates[i].proposal.candidate)) == keccak256(abi.encodePacked(voteCandidate))){\r\n                coachingCandidates[i].numOfVotes = coachingCandidates[i].numOfVotes.add(1);\r\n                break;\r\n            }\r\n        }\r\n\r\n        totalVotes = totalVotes.add(1);\r\n\r\n        emit CoachVoteReceived(msg.sender, coachVote);\r\n    }\r\n\r\n    // verify that the voter's choice exists in the candidateNames array\r\n    function verifyVote(string memory _voterChoice) private view returns (bool) {\r\n        bool choiceExists = false;\r\n\r\n        for (uint i=0; i<candidateNames.length; i++){\r\n            if (keccak256(abi.encodePacked(_voterChoice)) == keccak256(abi.encodePacked(candidateNames[i]))){\r\n                choiceExists = true;\r\n                break;\r\n            }\r\n        }\r\n\r\n        return choiceExists;\r\n    }\r\n\r\n    // takes the coachingCandidate array and sorts it so that the candidates with the top 5 votes are returned (\"The Podium\")\r\n    function tallyCoachVotes() private returns (ProposalAndVotes[] memory) {\r\n\r\n        uint len = coachingCandidates.length;\r\n\r\n        for (uint i=0; i<len-1; i++){\r\n            for (uint j=0; j<len-i-1; j++){\r\n                if (coachingCandidates[j].numOfVotes > coachingCandidates[j+1].numOfVotes){\r\n                    ProposalAndVotes memory temp = coachingCandidates[j];\r\n                    coachingCandidates[j] = coachingCandidates[j+1];\r\n                    coachingCandidates[j+1] = temp;\r\n                }\r\n            }\r\n        }\r\n\r\n        ProposalAndVotes[] memory topFive;\r\n\r\n        for (uint i=0; i<5; i++){\r\n            topFive[i] = coachingCandidates[len - 5 + i];\r\n        }\r\n\r\n        return topFive;\r\n    }\r\n    \r\n}",
  "sourcePath": "C:\\Users\\cooki\\OneDrive\\Documents\\Metro State Stuff\\690-Blockchain\\ics670-mn-vikings-dapp\\contracts\\CoachVotingMechanism.sol",
  "compiler": {
    "name": "solc",
    "version": "0.8.21+commit.d9974bed.Emscripten.clang"
  },
  "schemaVersion": "3.4.16",
  "updatedAt": "2024-02-20T06:39:31.974Z",
  "devdoc": {
    "kind": "dev",
    "methods": {},
    "version": 1
  },
  "userdoc": {
    "kind": "user",
    "methods": {},
    "version": 1
  }
}