{
  "contractName": "CoachProposal",
  "abi": [
    {
      "inputs": [
        {
          "internalType": "address",
          "name": "_VotingMechanismAddress",
          "type": "address"
        }
      ],
      "stateMutability": "nonpayable",
      "type": "constructor"
    },
    {
      "anonymous": false,
      "inputs": [
        {
          "indexed": false,
          "internalType": "address",
          "name": "sender",
          "type": "address"
        },
        {
          "components": [
            {
              "internalType": "address",
              "name": "ownerAddress",
              "type": "address"
            },
            {
              "internalType": "string",
              "name": "proposalType",
              "type": "string"
            },
            {
              "internalType": "string",
              "name": "candidate",
              "type": "string"
            }
          ],
          "indexed": false,
          "internalType": "struct VotingInterface.Proposal",
          "name": "proposal",
          "type": "tuple"
        }
      ],
      "name": "CoachProposalSent",
      "type": "event"
    },
    {
      "inputs": [],
      "name": "VotingMechanismAddress",
      "outputs": [
        {
          "internalType": "address",
          "name": "",
          "type": "address"
        }
      ],
      "stateMutability": "view",
      "type": "function"
    },
    {
      "inputs": [
        {
          "internalType": "uint256",
          "name": "",
          "type": "uint256"
        }
      ],
      "name": "availableCoaches",
      "outputs": [
        {
          "internalType": "string",
          "name": "name",
          "type": "string"
        },
        {
          "internalType": "bool",
          "name": "hired",
          "type": "bool"
        }
      ],
      "stateMutability": "view",
      "type": "function"
    },
    {
      "inputs": [],
      "name": "proposal",
      "outputs": [
        {
          "internalType": "address",
          "name": "ownerAddress",
          "type": "address"
        },
        {
          "internalType": "string",
          "name": "proposalType",
          "type": "string"
        },
        {
          "internalType": "string",
          "name": "candidate",
          "type": "string"
        }
      ],
      "stateMutability": "view",
      "type": "function"
    },
    {
      "inputs": [],
      "name": "getAvailableCoaches",
      "outputs": [
        {
          "components": [
            {
              "internalType": "string",
              "name": "name",
              "type": "string"
            },
            {
              "internalType": "bool",
              "name": "hired",
              "type": "bool"
            }
          ],
          "internalType": "struct CoachProposal.Coach[]",
          "name": "",
          "type": "tuple[]"
        }
      ],
      "stateMutability": "view",
      "type": "function"
    },
    {
      "inputs": [
        {
          "components": [
            {
              "internalType": "string",
              "name": "name",
              "type": "string"
            },
            {
              "internalType": "bool",
              "name": "hired",
              "type": "bool"
            }
          ],
          "internalType": "struct CoachProposal.Coach",
          "name": "candidate",
          "type": "tuple"
        }
      ],
      "name": "sendCoachProposal",
      "outputs": [],
      "stateMutability": "payable",
      "type": "function"
    }
  ],
  "bytecode": "0x608060405267058d15e1762800006005553480156200001c575f80fd5b5060405162001d0e38038062001d0e8339818101604052810190620000429190620002ca565b620000896040518060400160405280600e81526020017f42696c6c2042656c69636869636b0000000000000000000000000000000000008152505f620001eb60201b60201c565b620000d06040518060400160405280600b81526020017f4672616e6b2052656963680000000000000000000000000000000000000000008152505f620001eb60201b60201c565b620001176040518060400160405280600e81526020017f4a6f7368204d6344616e69656c730000000000000000000000000000000000008152505f620001eb60201b60201c565b6200015e6040518060400160405280600e81526020017f4272616e646f6e205374616c65790000000000000000000000000000000000008152505f620001eb60201b60201c565b620001a56040518060400160405280600b81526020017f4d696b652056726162656c0000000000000000000000000000000000000000008152505f620001eb60201b60201c565b805f806101000a81548173ffffffffffffffffffffffffffffffffffffffff021916908373ffffffffffffffffffffffffffffffffffffffff1602179055505062000642565b60016040518060400160405280848152602001831515815250908060018154018082558091505060019003905f5260205f2090600202015f909190919091505f820151815f0190816200023f91906200055e565b506020820151816001015f6101000a81548160ff02191690831515021790555050505050565b5f80fd5b5f73ffffffffffffffffffffffffffffffffffffffff82169050919050565b5f620002948262000269565b9050919050565b620002a68162000288565b8114620002b1575f80fd5b50565b5f81519050620002c4816200029b565b92915050565b5f60208284031215620002e257620002e162000265565b5b5f620002f184828501620002b4565b91505092915050565b5f81519050919050565b7f4e487b71000000000000000000000000000000000000000000000000000000005f52604160045260245ffd5b7f4e487b71000000000000000000000000000000000000000000000000000000005f52602260045260245ffd5b5f60028204905060018216806200037657607f821691505b6020821081036200038c576200038b62000331565b5b50919050565b5f819050815f5260205f209050919050565b5f6020601f8301049050919050565b5f82821b905092915050565b5f60088302620003f07fffffffffffffffffffffffffffffffffffffffffffffffffffffffffffffffff82620003b3565b620003fc8683620003b3565b95508019841693508086168417925050509392505050565b5f819050919050565b5f819050919050565b5f62000446620004406200043a8462000414565b6200041d565b62000414565b9050919050565b5f819050919050565b620004618362000426565b6200047962000470826200044d565b848454620003bf565b825550505050565b5f90565b6200048f62000481565b6200049c81848462000456565b505050565b5b81811015620004c357620004b75f8262000485565b600181019050620004a2565b5050565b601f8211156200051257620004dc8162000392565b620004e784620003a4565b81016020851015620004f7578190505b6200050f6200050685620003a4565b830182620004a1565b50505b505050565b5f82821c905092915050565b5f620005345f198460080262000517565b1980831691505092915050565b5f6200054e838362000523565b9150826002028217905092915050565b6200056982620002fa565b67ffffffffffffffff81111562000585576200058462000304565b5b6200059182546200035e565b6200059e828285620004c7565b5f60209050601f831160018114620005d4575f8415620005bf578287015190505b620005cb858262000541565b8655506200063a565b601f198416620005e48662000392565b5f5b828110156200060d57848901518255600182019150602085019450602081019050620005e6565b868310156200062d578489015162000629601f89168262000523565b8355505b6001600288020188555050505b505050505050565b6116be80620006505f395ff3fe608060405260043610610049575f3560e01c806346d385981461004d578063482afe2a14610069578063753ec103146100a65780637d3285a8146100d2578063f737a986146100fc575b5f80fd5b61006760048036038101906100629190610b0e565b610126565b005b348015610074575f80fd5b5061008f600480360381019061008a9190610b88565b610322565b60405161009d929190610c3c565b60405180910390f35b3480156100b1575f80fd5b506100ba6103e3565b6040516100c993929190610ca9565b60405180910390f35b3480156100dd575f80fd5b506100e6610525565b6040516100f39190610e38565b60405180910390f35b348015610107575f80fd5b5061011061062a565b60405161011d9190610e58565b60405180910390f35b610132815f015161064d565b610171576040517f08c379a000000000000000000000000000000000000000000000000000000000815260040161016890610ebb565b60405180910390fd5b600554341461017e575f80fd5b61018a815f01516106fb565b3360025f015f6101000a81548173ffffffffffffffffffffffffffffffffffffffff021916908373ffffffffffffffffffffffffffffffffffffffff1602179055506040518060400160405280600581526020017f636f6163680000000000000000000000000000000000000000000000000000008152506002600101908161021391906110d3565b506040518060400160405280600b81526020017f4d696b652056726162656c00000000000000000000000000000000000000000081525060028001908161025a91906110d3565b505f8054906101000a900473ffffffffffffffffffffffffffffffffffffffff1673ffffffffffffffffffffffffffffffffffffffff16638539eb8c346002346040518463ffffffff1660e01b81526004016102b79291906112e3565b5f604051808303818588803b1580156102ce575f80fd5b505af11580156102e0573d5f803e3d5ffd5b50505050507fc6abe1c15e7070d9a153634882fece4e999569b2b2e41c3665b518b6a8365e40336002604051610317929190611311565b60405180910390a150565b60018181548110610331575f80fd5b905f5260205f2090600202015f91509050805f01805461035090610f06565b80601f016020809104026020016040519081016040528092919081815260200182805461037c90610f06565b80156103c75780601f1061039e576101008083540402835291602001916103c7565b820191905f5260205f20905b8154815290600101906020018083116103aa57829003601f168201915b505050505090806001015f9054906101000a900460ff16905082565b6002805f015f9054906101000a900473ffffffffffffffffffffffffffffffffffffffff169080600101805461041890610f06565b80601f016020809104026020016040519081016040528092919081815260200182805461044490610f06565b801561048f5780601f106104665761010080835404028352916020019161048f565b820191905f5260205f20905b81548152906001019060200180831161047257829003601f168201915b5050505050908060020180546104a490610f06565b80601f01602080910402602001604051908101604052809291908181526020018280546104d090610f06565b801561051b5780601f106104f25761010080835404028352916020019161051b565b820191905f5260205f20905b8154815290600101906020018083116104fe57829003601f168201915b5050505050905083565b60606001805480602002602001604051908101604052809291908181526020015f905b82821015610621578382905f5260205f2090600202016040518060400160405290815f8201805461057890610f06565b80601f01602080910402602001604051908101604052809291908181526020018280546105a490610f06565b80156105ef5780601f106105c6576101008083540402835291602001916105ef565b820191905f5260205f20905b8154815290600101906020018083116105d257829003601f168201915b50505050508152602001600182015f9054906101000a900460ff16151515158152505081526020019060010190610548565b50505050905090565b5f8054906101000a900473ffffffffffffffffffffffffffffffffffffffff1681565b5f805f90505b6001805490508110156106f157826040516020016106719190611379565b604051602081830303815290604052805190602001206001828154811061069b5761069a61138f565b5b905f5260205f2090600202015f016040516020016106b9919061143c565b60405160208183030381529060405280519060200120036106de5760019150506106f6565b80806106e99061147f565b915050610653565b505f90505b919050565b5f805f90505b60018054905081101561079d578260405160200161071f9190611379565b60405160208183030381529060405280519060200120600182815481106107495761074861138f565b5b905f5260205f2090600202015f01604051602001610767919061143c565b604051602081830303815290604052805190602001200361078a5780915061079d565b80806107959061147f565b915050610701565b5060018054905081106107e5576040517f08c379a00000000000000000000000000000000000000000000000000000000081526004016107dc90611510565b60405180910390fd5b60018080805490506107f7919061152e565b815481106108085761080761138f565b5b905f5260205f209060020201600182815481106108285761082761138f565b5b905f5260205f2090600202015f8201815f0190816108469190611576565b50600182015f9054906101000a900460ff16816001015f6101000a81548160ff02191690831515021790555090505060018054806108875761088661165b565b5b600190038181905f5260205f2090600202015f8082015f6108a891906108c3565b600182015f6101000a81549060ff0219169055505090555050565b5080546108cf90610f06565b5f825580601f106108e057506108fd565b601f0160209004905f5260205f20908101906108fc9190610900565b5b50565b5b80821115610917575f815f905550600101610901565b5090565b5f604051905090565b5f80fd5b5f80fd5b5f80fd5b5f601f19601f8301169050919050565b7f4e487b71000000000000000000000000000000000000000000000000000000005f52604160045260245ffd5b61097682610930565b810181811067ffffffffffffffff8211171561099557610994610940565b5b80604052505050565b5f6109a761091b565b90506109b3828261096d565b919050565b5f80fd5b5f80fd5b5f80fd5b5f67ffffffffffffffff8211156109de576109dd610940565b5b6109e782610930565b9050602081019050919050565b828183375f83830152505050565b5f610a14610a0f846109c4565b61099e565b905082815260208101848484011115610a3057610a2f6109c0565b5b610a3b8482856109f4565b509392505050565b5f82601f830112610a5757610a566109bc565b5b8135610a67848260208601610a02565b91505092915050565b5f8115159050919050565b610a8481610a70565b8114610a8e575f80fd5b50565b5f81359050610a9f81610a7b565b92915050565b5f60408284031215610aba57610ab961092c565b5b610ac4604061099e565b90505f82013567ffffffffffffffff811115610ae357610ae26109b8565b5b610aef84828501610a43565b5f830152506020610b0284828501610a91565b60208301525092915050565b5f60208284031215610b2357610b22610924565b5b5f82013567ffffffffffffffff811115610b4057610b3f610928565b5b610b4c84828501610aa5565b91505092915050565b5f819050919050565b610b6781610b55565b8114610b71575f80fd5b50565b5f81359050610b8281610b5e565b92915050565b5f60208284031215610b9d57610b9c610924565b5b5f610baa84828501610b74565b91505092915050565b5f81519050919050565b5f82825260208201905092915050565b5f5b83811015610bea578082015181840152602081019050610bcf565b5f8484015250505050565b5f610bff82610bb3565b610c098185610bbd565b9350610c19818560208601610bcd565b610c2281610930565b840191505092915050565b610c3681610a70565b82525050565b5f6040820190508181035f830152610c548185610bf5565b9050610c636020830184610c2d565b9392505050565b5f73ffffffffffffffffffffffffffffffffffffffff82169050919050565b5f610c9382610c6a565b9050919050565b610ca381610c89565b82525050565b5f606082019050610cbc5f830186610c9a565b8181036020830152610cce8185610bf5565b90508181036040830152610ce28184610bf5565b9050949350505050565b5f81519050919050565b5f82825260208201905092915050565b5f819050602082019050919050565b5f82825260208201905092915050565b5f610d2f82610bb3565b610d398185610d15565b9350610d49818560208601610bcd565b610d5281610930565b840191505092915050565b610d6681610a70565b82525050565b5f604083015f8301518482035f860152610d868282610d25565b9150506020830151610d9b6020860182610d5d565b508091505092915050565b5f610db18383610d6c565b905092915050565b5f602082019050919050565b5f610dcf82610cec565b610dd98185610cf6565b935083602082028501610deb85610d06565b805f5b85811015610e265784840389528151610e078582610da6565b9450610e1283610db9565b925060208a01995050600181019050610dee565b50829750879550505050505092915050565b5f6020820190508181035f830152610e508184610dc5565b905092915050565b5f602082019050610e6b5f830184610c9a565b92915050565b7f436f616368206973206e6f7420617661696c61626c6520746f206869726500005f82015250565b5f610ea5601e83610bbd565b9150610eb082610e71565b602082019050919050565b5f6020820190508181035f830152610ed281610e99565b9050919050565b7f4e487b71000000000000000000000000000000000000000000000000000000005f52602260045260245ffd5b5f6002820490506001821680610f1d57607f821691505b602082108103610f3057610f2f610ed9565b5b50919050565b5f819050815f5260205f209050919050565b5f6020601f8301049050919050565b5f82821b905092915050565b5f60088302610f927fffffffffffffffffffffffffffffffffffffffffffffffffffffffffffffffff82610f57565b610f9c8683610f57565b95508019841693508086168417925050509392505050565b5f819050919050565b5f610fd7610fd2610fcd84610b55565b610fb4565b610b55565b9050919050565b5f819050919050565b610ff083610fbd565b611004610ffc82610fde565b848454610f63565b825550505050565b5f90565b61101861100c565b611023818484610fe7565b505050565b5b818110156110465761103b5f82611010565b600181019050611029565b5050565b601f82111561108b5761105c81610f36565b61106584610f48565b81016020851015611074578190505b61108861108085610f48565b830182611028565b50505b505050565b5f82821c905092915050565b5f6110ab5f1984600802611090565b1980831691505092915050565b5f6110c3838361109c565b9150826002028217905092915050565b6110dc82610bb3565b67ffffffffffffffff8111156110f5576110f4610940565b5b6110ff8254610f06565b61110a82828561104a565b5f60209050601f83116001811461113b575f8415611129578287015190505b61113385826110b8565b86555061119a565b601f19841661114986610f36565b5f5b828110156111705784890151825560018201915060208501945060208101905061114b565b8683101561118d5784890151611189601f89168261109c565b8355505b6001600288020188555050505b505050505050565b5f815f1c9050919050565b5f73ffffffffffffffffffffffffffffffffffffffff82169050919050565b5f6111de6111d9836111a2565b6111ad565b9050919050565b6111ee81610c89565b82525050565b5f815461120081610f06565b61120a8186610d15565b9450600182165f8114611224576001811461123a5761126c565b60ff19831686528115156020028601935061126c565b61124385610f36565b5f5b8381101561126457815481890152600182019150602081019050611245565b808801955050505b50505092915050565b5f606083015f80840154905061128a816111cc565b6112965f8701826111e5565b506001840185830360208701526112ad83826111f4565b9250506002840185830360408701526112c683826111f4565b925050819250505092915050565b6112dd81610b55565b82525050565b5f6040820190508181035f8301526112fb8185611275565b905061130a60208301846112d4565b9392505050565b5f6040820190506113245f830185610c9a565b81810360208301526113368184611275565b90509392505050565b5f81905092915050565b5f61135382610bb3565b61135d818561133f565b935061136d818560208601610bcd565b80840191505092915050565b5f6113848284611349565b915081905092915050565b7f4e487b71000000000000000000000000000000000000000000000000000000005f52603260045260245ffd5b5f81546113c881610f06565b6113d2818661133f565b9450600182165f81146113ec576001811461140157611433565b60ff1983168652811515820286019350611433565b61140a85610f36565b5f5b8381101561142b5781548189015260018201915060208101905061140c565b838801955050505b50505092915050565b5f61144782846113bc565b915081905092915050565b7f4e487b71000000000000000000000000000000000000000000000000000000005f52601160045260245ffd5b5f61148982610b55565b91507fffffffffffffffffffffffffffffffffffffffffffffffffffffffffffffffff82036114bb576114ba611452565b5b600182019050919050565b7f496e646578206f7574206f6620626f756e6473000000000000000000000000005f82015250565b5f6114fa601383610bbd565b9150611505826114c6565b602082019050919050565b5f6020820190508181035f830152611527816114ee565b9050919050565b5f61153882610b55565b915061154383610b55565b925082820390508181111561155b5761155a611452565b5b92915050565b5f8154905061156f81610f06565b9050919050565b818103611584575050611659565b61158d82611561565b67ffffffffffffffff8111156115a6576115a5610940565b5b6115b08254610f06565b6115bb82828561104a565b5f601f8311600181146115e8575f84156115d6578287015490505b6115e085826110b8565b865550611652565b601f1984166115f687610f36565b965061160186610f36565b5f5b8281101561162857848901548255600182019150600185019450602081019050611603565b868310156116455784890154611641601f89168261109c565b8355505b6001600288020188555050505b5050505050505b565b7f4e487b71000000000000000000000000000000000000000000000000000000005f52603160045260245ffdfea264697066735822122094560de5f0c5c48accb5de7786c7f837954c537a781b5db5374d7c9cae88913f64736f6c63430008150033",
  "immutableReferences": {},
  "source": "// SPDX-License-Identifier: UNLICENSED\r\npragma solidity ^0.8.19;\r\n\r\nimport \"./CoachVotingMechanism.sol\";\r\nimport \"./VotingInterface.sol\";\r\n\r\ncontract CoachProposal {\r\n\r\n    address public VotingMechanismAddress;\r\n\r\n    constructor(address _VotingMechanismAddress) {\r\n        addAvailableCoach(\"Bill Belichick\", false);\r\n        addAvailableCoach(\"Frank Reich\", false);\r\n        addAvailableCoach(\"Josh McDaniels\", false);\r\n        addAvailableCoach(\"Brandon Staley\", false);\r\n        addAvailableCoach(\"Mike Vrabel\", false);\r\n\r\n        VotingMechanismAddress = _VotingMechanismAddress;\r\n    }\r\n\r\n    struct Coach {\r\n        string name;\r\n        bool hired;\r\n    }\r\n\r\n    // array of head coach candidates\r\n    Coach[] public availableCoaches;\r\n\r\n    function addAvailableCoach(string memory _name, bool _hired) private {\r\n        availableCoaches.push(Coach(_name,_hired));\r\n    }\r\n\r\n    function removeCoach(string memory _name) private {\r\n        uint index;\r\n        for (uint i = 0; i < availableCoaches.length; i++) {\r\n            if (keccak256(abi.encodePacked(availableCoaches[i].name)) == keccak256(abi.encodePacked(_name))) {\r\n                index = i;\r\n                break;\r\n            }\r\n        }\r\n        \r\n        require(index < availableCoaches.length, \"Index out of bounds\");\r\n\r\n        availableCoaches[index] = availableCoaches[availableCoaches.length - 1];\r\n        availableCoaches.pop();\r\n    }\r\n\r\n    // a user wanting to make a proposal would have to see who the available choices are\r\n    function getAvailableCoaches() external view returns (Coach[] memory) {\r\n        return availableCoaches;\r\n    }\r\n\r\n    VotingInterface.Proposal public proposal; // using shared proposal struct in interface so both contracts can see it\r\n    uint proposalFee = 0.4 ether; // costs 4 MVCs to submit a proposal\r\n    event CoachProposalSent(address sender, VotingInterface.Proposal proposal);\r\n\r\n    // sends a CoachProposal to the VotingMechanism\r\n    // costs 4 MVC coins to execute (0.4 ether)\r\n    function sendCoachProposal(Coach memory candidate) external payable {\r\n        require(isCoachAvailable(candidate.name), \"Coach is not available to hire\");\r\n        require(msg.value == proposalFee);\r\n\r\n        removeCoach(candidate.name);\r\n\r\n        proposal.ownerAddress = msg.sender;\r\n        proposal.proposalType = \"coach\";\r\n        proposal.candidate = \"Mike Vrabel\";\r\n\r\n        CoachVotingMechanism(VotingMechanismAddress).receiveCoachProposal{value:msg.value}(proposal, msg.value);\r\n\r\n        emit CoachProposalSent(msg.sender, proposal);\r\n    }\r\n\r\n    function isCoachAvailable(string memory _name) private view returns (bool) {\r\n        for (uint i = 0; i < availableCoaches.length; i++) {\r\n            if (keccak256(abi.encodePacked(availableCoaches[i].name)) == keccak256(abi.encodePacked(_name))) {\r\n                return true;\r\n            }\r\n        }\r\n        return false;\r\n    }\r\n}",
  "sourcePath": "C:\\Users\\cooki\\OneDrive\\Documents\\Metro State Stuff\\690-Blockchain\\ics670-mn-vikings-dapp\\contracts\\CoachProposal.sol",
  "compiler": {
    "name": "solc",
    "version": "0.8.21+commit.d9974bed.Emscripten.clang"
  },
  "schemaVersion": "3.4.16",
  "updatedAt": "2024-03-17T23:22:43.652Z",
  "devdoc": {
    "kind": "dev",
    "methods": {},
    "version": 1
  },
  "userdoc": {
    "kind": "user",
    "methods": {},
    "version": 1
  }
}