{
  "contractName": "CoachVotingMechanism",
  "abi": [
    {
      "inputs": [
        {
          "internalType": "address",
          "name": "_VotingMechanismAddress",
          "type": "address"
        },
        {
          "internalType": "address",
          "name": "_skolFaithfulAddress",
          "type": "address"
        }
      ],
      "stateMutability": "nonpayable",
      "type": "constructor"
    },
    {
      "anonymous": false,
      "inputs": [
        {
          "indexed": false,
          "internalType": "address",
          "name": "sender",
          "type": "address"
        },
        {
          "components": [
            {
              "internalType": "address",
              "name": "ownerAddress",
              "type": "address"
            },
            {
              "internalType": "string",
              "name": "proposalType",
              "type": "string"
            },
            {
              "internalType": "string",
              "name": "candidate",
              "type": "string"
            }
          ],
          "indexed": false,
          "internalType": "struct VotingInterface.Proposal",
          "name": "proposal",
          "type": "tuple"
        },
        {
          "indexed": false,
          "internalType": "uint256",
          "name": "ethAmount",
          "type": "uint256"
        }
      ],
      "name": "CoachProposalReceived",
      "type": "event"
    },
    {
      "anonymous": false,
      "inputs": [
        {
          "indexed": false,
          "internalType": "address",
          "name": "sender",
          "type": "address"
        },
        {
          "components": [
            {
              "internalType": "address",
              "name": "ownerAddress",
              "type": "address"
            },
            {
              "internalType": "string",
              "name": "proposalType",
              "type": "string"
            },
            {
              "internalType": "string",
              "name": "candidate",
              "type": "string"
            }
          ],
          "indexed": false,
          "internalType": "struct VotingInterface.CoachVote",
          "name": "vote",
          "type": "tuple"
        }
      ],
      "name": "CoachVoteReceived",
      "type": "event"
    },
    {
      "inputs": [],
      "name": "VotingMechanismAddress",
      "outputs": [
        {
          "internalType": "address",
          "name": "",
          "type": "address"
        }
      ],
      "stateMutability": "view",
      "type": "function"
    },
    {
      "inputs": [
        {
          "internalType": "uint256",
          "name": "",
          "type": "uint256"
        }
      ],
      "name": "candidateNames",
      "outputs": [
        {
          "internalType": "string",
          "name": "",
          "type": "string"
        }
      ],
      "stateMutability": "view",
      "type": "function"
    },
    {
      "inputs": [
        {
          "internalType": "uint256",
          "name": "",
          "type": "uint256"
        }
      ],
      "name": "coachingCandidates",
      "outputs": [
        {
          "components": [
            {
              "internalType": "address",
              "name": "ownerAddress",
              "type": "address"
            },
            {
              "internalType": "string",
              "name": "proposalType",
              "type": "string"
            },
            {
              "internalType": "string",
              "name": "candidate",
              "type": "string"
            }
          ],
          "internalType": "struct VotingInterface.Proposal",
          "name": "proposal",
          "type": "tuple"
        },
        {
          "internalType": "uint256",
          "name": "numOfVotes",
          "type": "uint256"
        }
      ],
      "stateMutability": "view",
      "type": "function"
    },
    {
      "inputs": [],
      "name": "skolFaithful",
      "outputs": [
        {
          "internalType": "contract SkolFaithful",
          "name": "",
          "type": "address"
        }
      ],
      "stateMutability": "view",
      "type": "function"
    },
    {
      "inputs": [],
      "name": "getCoachingCandidates",
      "outputs": [
        {
          "internalType": "string[]",
          "name": "",
          "type": "string[]"
        }
      ],
      "stateMutability": "view",
      "type": "function"
    },
    {
      "inputs": [
        {
          "components": [
            {
              "internalType": "address",
              "name": "ownerAddress",
              "type": "address"
            },
            {
              "internalType": "string",
              "name": "proposalType",
              "type": "string"
            },
            {
              "internalType": "string",
              "name": "candidate",
              "type": "string"
            }
          ],
          "internalType": "struct VotingInterface.Proposal",
          "name": "proposal",
          "type": "tuple"
        },
        {
          "internalType": "uint256",
          "name": "ethAmount",
          "type": "uint256"
        }
      ],
      "name": "receiveCoachProposal",
      "outputs": [],
      "stateMutability": "payable",
      "type": "function"
    },
    {
      "inputs": [
        {
          "components": [
            {
              "internalType": "address",
              "name": "ownerAddress",
              "type": "address"
            },
            {
              "internalType": "string",
              "name": "proposalType",
              "type": "string"
            },
            {
              "internalType": "string",
              "name": "candidate",
              "type": "string"
            }
          ],
          "internalType": "struct VotingInterface.CoachVote",
          "name": "coachVote",
          "type": "tuple"
        }
      ],
      "name": "receiveCoachVote",
      "outputs": [],
      "stateMutability": "payable",
      "type": "function"
    },
    {
      "inputs": [
        {
          "internalType": "address payable",
          "name": "_to",
          "type": "address"
        },
        {
          "internalType": "address",
          "name": "_from",
          "type": "address"
        },
        {
          "internalType": "uint256",
          "name": "amount",
          "type": "uint256"
        }
      ],
      "name": "sendMVC",
      "outputs": [],
      "stateMutability": "payable",
      "type": "function"
    },
    {
      "inputs": [
        {
          "internalType": "address",
          "name": "_memberAddress",
          "type": "address"
        },
        {
          "internalType": "uint256",
          "name": "_tokens",
          "type": "uint256"
        }
      ],
      "name": "awardRepTokens",
      "outputs": [],
      "stateMutability": "nonpayable",
      "type": "function"
    }
  ],
  "bytecode": "0x608060405234801562000010575f80fd5b506040516200209738038062002097833981810160405281019062000036919062000122565b815f806101000a81548173ffffffffffffffffffffffffffffffffffffffff021916908373ffffffffffffffffffffffffffffffffffffffff1602179055508060015f6101000a81548173ffffffffffffffffffffffffffffffffffffffff021916908373ffffffffffffffffffffffffffffffffffffffff160217905550505062000167565b5f80fd5b5f73ffffffffffffffffffffffffffffffffffffffff82169050919050565b5f620000ec82620000c1565b9050919050565b620000fe81620000e0565b811462000109575f80fd5b50565b5f815190506200011c81620000f3565b92915050565b5f80604083850312156200013b576200013a620000bd565b5b5f6200014a858286016200010c565b92505060206200015d858286016200010c565b9150509250929050565b611f2280620001755f395ff3fe608060405260043610610085575f3560e01c80638539eb8c116100585780638539eb8c1461014657806397bad02414610162578063caa1329a1461018c578063e860174e146101a8578063f737a986146101d257610085565b806345111824146100895780635051af4e146100c65780635b274592146100ee5780638287e42f1461010a575b5f80fd5b348015610094575f80fd5b506100af60048036038101906100aa9190610eb0565b6101fc565b6040516100bd929190611007565b60405180910390f35b3480156100d1575f80fd5b506100ec60048036038101906100e7919061105f565b6103a9565b005b6101086004803603810190610103919061126a565b6105c6565b005b348015610115575f80fd5b50610130600480360381019061012b9190610eb0565b61086c565b60405161013d91906112f9565b60405180910390f35b610160600480360381019061015b91906113b2565b610912565b005b34801561016d575f80fd5b50610176610ae1565b60405161018391906114c7565b60405180910390f35b6101a660048036038101906101a19190611522565b610bb5565b005b3480156101b3575f80fd5b506101bc610caf565b6040516101c991906115cd565b60405180910390f35b3480156101dd575f80fd5b506101e6610cd4565b6040516101f391906115f5565b60405180910390f35b6004818154811061020b575f80fd5b905f5260205f2090600502015f91509050805f016040518060600160405290815f82015f9054906101000a900473ffffffffffffffffffffffffffffffffffffffff1673ffffffffffffffffffffffffffffffffffffffff1673ffffffffffffffffffffffffffffffffffffffff16815260200160018201805461028e9061163b565b80601f01602080910402602001604051908101604052809291908181526020018280546102ba9061163b565b80156103055780601f106102dc57610100808354040283529160200191610305565b820191905f5260205f20905b8154815290600101906020018083116102e857829003601f168201915b5050505050815260200160028201805461031e9061163b565b80601f016020809104026020016040519081016040528092919081815260200182805461034a9061163b565b80156103955780601f1061036c57610100808354040283529160200191610395565b820191905f5260205f20905b81548152906001019060200180831161037857829003601f168201915b505050505081525050908060030154905082565b5f60015f9054906101000a900473ffffffffffffffffffffffffffffffffffffffff1673ffffffffffffffffffffffffffffffffffffffff16639eab52536040518163ffffffff1660e01b81526004015f60405180830381865afa158015610413573d5f803e3d5ffd5b505050506040513d5f823e3d601f19601f8201168201806040525081019061043b91906117b8565b5190505f5b818110156105bf575f60015f9054906101000a900473ffffffffffffffffffffffffffffffffffffffff1673ffffffffffffffffffffffffffffffffffffffff1663f8024d10836040518263ffffffff1660e01b81526004016104a391906117ff565b606060405180830381865afa1580156104be573d5f803e3d5ffd5b505050506040513d601f19601f820116820180604052508101906104e29190611818565b90508473ffffffffffffffffffffffffffffffffffffffff16815f015173ffffffffffffffffffffffffffffffffffffffff16036105ab5760015f9054906101000a900473ffffffffffffffffffffffffffffffffffffffff1673ffffffffffffffffffffffffffffffffffffffff1663bbab818d83866040518363ffffffff1660e01b8152600401610576929190611843565b5f604051808303815f87803b15801561058d575f80fd5b505af115801561059f573d5f803e3d5ffd5b505050505050506105c2565b5080806105b790611897565b915050610440565b50505b5050565b3373ffffffffffffffffffffffffffffffffffffffff16815f015173ffffffffffffffffffffffffffffffffffffffff1614610600575f80fd5b60405160200161060f90611932565b60405160208183030381529060405280519060200120816020015160405160200161063a9190611976565b6040516020818303038152906040528051906020012014610659575f80fd5b6106668160400151610cf7565b61066e575f80fd5b5f816040015190505f5b6004805490508110156107f657816040516020016106969190611976565b60405160208183030381529060405280519060200120600482815481106106c0576106bf61198c565b5b905f5260205f2090600502015f016002016040516020016106e19190611a4b565b60405160208183030381529060405280519060200120036107e3576107336001600483815481106107155761071461198c565b5b905f5260205f20906005020160030154610d9f90919063ffffffff16565b600482815481106107475761074661198c565b5b905f5260205f209060050201600301819055506004818154811061076e5761076d61198c565b5b905f5260205f209060050201600401835f0151908060018154018082558091505060019003905f5260205f20015f9091909190916101000a81548173ffffffffffffffffffffffffffffffffffffffff021916908373ffffffffffffffffffffffffffffffffffffffff1602179055506107f6565b80806107ee90611897565b915050610678565b5061080d6001600254610d9f90919063ffffffff16565b6002819055506108296002600354610d9f90919063ffffffff16565b6003819055507fca334562d0af680d4a18e0bba98d38942a503a711b7825849df710dda347a0d63383604051610860929190611ab5565b60405180910390a15050565b6005818154811061087b575f80fd5b905f5260205f20015f9150905080546108939061163b565b80601f01602080910402602001604051908101604052809291908181526020018280546108bf9061163b565b801561090a5780601f106108e15761010080835404028352916020019161090a565b820191905f5260205f20905b8154815290600101906020018083116108ed57829003601f168201915b505050505081565b3373ffffffffffffffffffffffffffffffffffffffff16825f015173ffffffffffffffffffffffffffffffffffffffff161461094c575f80fd5b6060600460405180606001604052808581526020015f815260200183815250908060018154018082558091505060019003905f5260205f2090600502015f909190919091505f820151815f015f820151815f015f6101000a81548173ffffffffffffffffffffffffffffffffffffffff021916908373ffffffffffffffffffffffffffffffffffffffff16021790555060208201518160010190816109f19190611c65565b506040820151816002019081610a079190611c65565b505050602082015181600301556040820151816004019080519060200190610a30929190610dca565b50505060058360400151908060018154018082558091505060019003905f5260205f20015f909190919091509081610a689190611c65565b50610a7f6001600254610d9f90919063ffffffff16565b600281905550610a9b6004600354610d9f90919063ffffffff16565b6003819055507fce5ee28800cd24815f015beaac43a35f9eb75a7996f75c23122a2837f7682b4b338484604051610ad493929190611d34565b60405180910390a1505050565b60606005805480602002602001604051908101604052809291908181526020015f905b82821015610bac578382905f5260205f20018054610b219061163b565b80601f0160208091040260200160405190810160405280929190818152602001828054610b4d9061163b565b8015610b985780601f10610b6f57610100808354040283529160200191610b98565b820191905f5260205f20905b815481529060010190602001808311610b7b57829003601f168201915b505050505081526020019060010190610b04565b50505050905090565b8173ffffffffffffffffffffffffffffffffffffffff163373ffffffffffffffffffffffffffffffffffffffff1614610c23576040517f08c379a0000000000000000000000000000000000000000000000000000000008152600401610c1a90611de0565b60405180910390fd5b80471015610c66576040517f08c379a0000000000000000000000000000000000000000000000000000000008152600401610c5d90611e6e565b60405180910390fd5b8273ffffffffffffffffffffffffffffffffffffffff166108fc8290811502906040515f60405180830381858888f19350505050158015610ca9573d5f803e3d5ffd5b50505050565b60015f9054906101000a900473ffffffffffffffffffffffffffffffffffffffff1681565b5f8054906101000a900473ffffffffffffffffffffffffffffffffffffffff1681565b5f805f90505f5b600580549050811015610d955760058181548110610d1f57610d1e61198c565b5b905f5260205f2001604051602001610d379190611a4b565b6040516020818303038152906040528051906020012084604051602001610d5e9190611976565b6040516020818303038152906040528051906020012003610d825760019150610d95565b8080610d8d90611897565b915050610cfe565b5080915050919050565b5f808284610dad9190611e8c565b905083811015610dc057610dbf611ebf565b5b8091505092915050565b828054828255905f5260205f20908101928215610e40579160200282015b82811115610e3f578251825f6101000a81548173ffffffffffffffffffffffffffffffffffffffff021916908373ffffffffffffffffffffffffffffffffffffffff16021790555091602001919060010190610de8565b5b509050610e4d9190610e51565b5090565b5b80821115610e68575f815f905550600101610e52565b5090565b5f604051905090565b5f80fd5b5f80fd5b5f819050919050565b610e8f81610e7d565b8114610e99575f80fd5b50565b5f81359050610eaa81610e86565b92915050565b5f60208284031215610ec557610ec4610e75565b5b5f610ed284828501610e9c565b91505092915050565b5f73ffffffffffffffffffffffffffffffffffffffff82169050919050565b5f610f0482610edb565b9050919050565b610f1481610efa565b82525050565b5f81519050919050565b5f82825260208201905092915050565b5f5b83811015610f51578082015181840152602081019050610f36565b5f8484015250505050565b5f601f19601f8301169050919050565b5f610f7682610f1a565b610f808185610f24565b9350610f90818560208601610f34565b610f9981610f5c565b840191505092915050565b5f606083015f830151610fb95f860182610f0b565b5060208301518482036020860152610fd18282610f6c565b91505060408301518482036040860152610feb8282610f6c565b9150508091505092915050565b61100181610e7d565b82525050565b5f6040820190508181035f83015261101f8185610fa4565b905061102e6020830184610ff8565b9392505050565b61103e81610efa565b8114611048575f80fd5b50565b5f8135905061105981611035565b92915050565b5f806040838503121561107557611074610e75565b5b5f6110828582860161104b565b925050602061109385828601610e9c565b9150509250929050565b5f80fd5b7f4e487b71000000000000000000000000000000000000000000000000000000005f52604160045260245ffd5b6110d782610f5c565b810181811067ffffffffffffffff821117156110f6576110f56110a1565b5b80604052505050565b5f611108610e6c565b905061111482826110ce565b919050565b5f80fd5b5f80fd5b5f80fd5b5f67ffffffffffffffff82111561113f5761113e6110a1565b5b61114882610f5c565b9050602081019050919050565b828183375f83830152505050565b5f61117561117084611125565b6110ff565b90508281526020810184848401111561119157611190611121565b5b61119c848285611155565b509392505050565b5f82601f8301126111b8576111b761111d565b5b81356111c8848260208601611163565b91505092915050565b5f606082840312156111e6576111e561109d565b5b6111f060606110ff565b90505f6111ff8482850161104b565b5f83015250602082013567ffffffffffffffff81111561122257611221611119565b5b61122e848285016111a4565b602083015250604082013567ffffffffffffffff81111561125257611251611119565b5b61125e848285016111a4565b60408301525092915050565b5f6020828403121561127f5761127e610e75565b5b5f82013567ffffffffffffffff81111561129c5761129b610e79565b5b6112a8848285016111d1565b91505092915050565b5f82825260208201905092915050565b5f6112cb82610f1a565b6112d581856112b1565b93506112e5818560208601610f34565b6112ee81610f5c565b840191505092915050565b5f6020820190508181035f83015261131181846112c1565b905092915050565b5f6060828403121561132e5761132d61109d565b5b61133860606110ff565b90505f6113478482850161104b565b5f83015250602082013567ffffffffffffffff81111561136a57611369611119565b5b611376848285016111a4565b602083015250604082013567ffffffffffffffff81111561139a57611399611119565b5b6113a6848285016111a4565b60408301525092915050565b5f80604083850312156113c8576113c7610e75565b5b5f83013567ffffffffffffffff8111156113e5576113e4610e79565b5b6113f185828601611319565b925050602061140285828601610e9c565b9150509250929050565b5f81519050919050565b5f82825260208201905092915050565b5f819050602082019050919050565b5f6114408383610f6c565b905092915050565b5f602082019050919050565b5f61145e8261140c565b6114688185611416565b93508360208202850161147a85611426565b805f5b858110156114b557848403895281516114968582611435565b94506114a183611448565b925060208a0199505060018101905061147d565b50829750879550505050505092915050565b5f6020820190508181035f8301526114df8184611454565b905092915050565b5f6114f182610edb565b9050919050565b611501816114e7565b811461150b575f80fd5b50565b5f8135905061151c816114f8565b92915050565b5f805f6060848603121561153957611538610e75565b5b5f6115468682870161150e565b93505060206115578682870161104b565b925050604061156886828701610e9c565b9150509250925092565b5f819050919050565b5f61159561159061158b84610edb565b611572565b610edb565b9050919050565b5f6115a68261157b565b9050919050565b5f6115b78261159c565b9050919050565b6115c7816115ad565b82525050565b5f6020820190506115e05f8301846115be565b92915050565b6115ef81610efa565b82525050565b5f6020820190506116085f8301846115e6565b92915050565b7f4e487b71000000000000000000000000000000000000000000000000000000005f52602260045260245ffd5b5f600282049050600182168061165257607f821691505b6020821081036116655761166461160e565b5b50919050565b5f67ffffffffffffffff821115611685576116846110a1565b5b602082029050602081019050919050565b5f80fd5b5f815190506116a881611035565b92915050565b5f815190506116bc81610e86565b92915050565b5f606082840312156116d7576116d661109d565b5b6116e160606110ff565b90505f6116f08482850161169a565b5f830152506020611703848285016116ae565b6020830152506040611717848285016116ae565b60408301525092915050565b5f6117356117308461166b565b6110ff565b9050808382526020820190506060840283018581111561175857611757611696565b5b835b81811015611781578061176d88826116c2565b84526020840193505060608101905061175a565b5050509392505050565b5f82601f83011261179f5761179e61111d565b5b81516117af848260208601611723565b91505092915050565b5f602082840312156117cd576117cc610e75565b5b5f82015167ffffffffffffffff8111156117ea576117e9610e79565b5b6117f68482850161178b565b91505092915050565b5f6020820190506118125f830184610ff8565b92915050565b5f6060828403121561182d5761182c610e75565b5b5f61183a848285016116c2565b91505092915050565b5f6040820190506118565f830185610ff8565b6118636020830184610ff8565b9392505050565b7f4e487b71000000000000000000000000000000000000000000000000000000005f52601160045260245ffd5b5f6118a182610e7d565b91507fffffffffffffffffffffffffffffffffffffffffffffffffffffffffffffffff82036118d3576118d261186a565b5b600182019050919050565b5f81905092915050565b7f636f6163680000000000000000000000000000000000000000000000000000005f82015250565b5f61191c6005836118de565b9150611927826118e8565b600582019050919050565b5f61193c82611910565b9150819050919050565b5f61195082610f1a565b61195a81856118de565b935061196a818560208601610f34565b80840191505092915050565b5f6119818284611946565b915081905092915050565b7f4e487b71000000000000000000000000000000000000000000000000000000005f52603260045260245ffd5b5f819050815f5260205f209050919050565b5f81546119d78161163b565b6119e181866118de565b9450600182165f81146119fb5760018114611a1057611a42565b60ff1983168652811515820286019350611a42565b611a19856119b9565b5f5b83811015611a3a57815481890152600182019150602081019050611a1b565b838801955050505b50505092915050565b5f611a5682846119cb565b915081905092915050565b5f606083015f830151611a765f860182610f0b565b5060208301518482036020860152611a8e8282610f6c565b91505060408301518482036040860152611aa88282610f6c565b9150508091505092915050565b5f604082019050611ac85f8301856115e6565b8181036020830152611ada8184611a61565b90509392505050565b5f6020601f8301049050919050565b5f82821b905092915050565b5f60088302611b2d7fffffffffffffffffffffffffffffffffffffffffffffffffffffffffffffffff82611af2565b611b378683611af2565b95508019841693508086168417925050509392505050565b5f611b69611b64611b5f84610e7d565b611572565b610e7d565b9050919050565b5f819050919050565b611b8283611b4f565b611b96611b8e82611b70565b848454611afe565b825550505050565b5f90565b611baa611b9e565b611bb5818484611b79565b505050565b5b81811015611bd857611bcd5f82611ba2565b600181019050611bbb565b5050565b601f821115611c1d57611bee816119b9565b611bf784611ae3565b81016020851015611c06578190505b611c1a611c1285611ae3565b830182611bba565b50505b505050565b5f82821c905092915050565b5f611c3d5f1984600802611c22565b1980831691505092915050565b5f611c558383611c2e565b9150826002028217905092915050565b611c6e82610f1a565b67ffffffffffffffff811115611c8757611c866110a1565b5b611c91825461163b565b611c9c828285611bdc565b5f60209050601f831160018114611ccd575f8415611cbb578287015190505b611cc58582611c4a565b865550611d2c565b601f198416611cdb866119b9565b5f5b82811015611d0257848901518255600182019150602085019450602081019050611cdd565b86831015611d1f5784890151611d1b601f891682611c2e565b8355505b6001600288020188555050505b505050505050565b5f606082019050611d475f8301866115e6565b8181036020830152611d598185610fa4565b9050611d686040830184610ff8565b949350505050565b7f4f6e6c7920746865207370656369666965642073656e6465722063616e2063615f8201527f6c6c20746869732066756e6374696f6e00000000000000000000000000000000602082015250565b5f611dca6030836112b1565b9150611dd582611d70565b604082019050919050565b5f6020820190508181035f830152611df781611dbe565b9050919050565b7f496e73756666696369656e742062616c616e636520696e2074686520636f6e745f8201527f7261637400000000000000000000000000000000000000000000000000000000602082015250565b5f611e586024836112b1565b9150611e6382611dfe565b604082019050919050565b5f6020820190508181035f830152611e8581611e4c565b9050919050565b5f611e9682610e7d565b9150611ea183610e7d565b9250828201905080821115611eb957611eb861186a565b5b92915050565b7f4e487b71000000000000000000000000000000000000000000000000000000005f52600160045260245ffdfea26469706673582212200c53fdf1007c97a1c04ddb4a4ea77d8be53fde0d73dae5fc36372169c41a313964736f6c63430008150033",
  "immutableReferences": {},
  "source": "// SPDX-License-Identifier: UNLICENSED\r\npragma solidity ^0.8.19;\r\n\r\nimport \"./safemath.sol\";\r\nimport \"./VotingInterface.sol\";\r\nimport \"./RepSystemInterface.sol\";\r\nimport \"./SkolFaithful.sol\";\r\n\r\ncontract CoachVotingMechanism {\r\n\r\n    address public VotingMechanismAddress;\r\n    SkolFaithful public skolFaithful;\r\n\r\n    constructor(address _VotingMechanismAddress, address _skolFaithfulAddress) {\r\n        VotingMechanismAddress = _VotingMechanismAddress;\r\n        skolFaithful = SkolFaithful(_skolFaithfulAddress);\r\n    }\r\n\r\n    using SafeMath for uint;\r\n\r\n    uint totalVotes;\r\n    uint totalMVCs;\r\n\r\n    // struct of proposals and corresponding votes\r\n    struct ProposalAndVotes {\r\n        VotingInterface.Proposal proposal;\r\n        uint numOfVotes;\r\n        address[] voterAddresses;\r\n    }\r\n\r\n    // an array of the ProposalAndVotes objects\r\n    ProposalAndVotes[] public coachingCandidates;\r\n\r\n    // an array of names making it easier to verify and show to voters - abstracting away owner and vote count, voter will just see the candidate names\r\n    string[] public candidateNames;\r\n\r\n    // events verifying that proposals and votes were received\r\n    event CoachProposalReceived(address sender, VotingInterface.Proposal proposal, uint ethAmount);\r\n    event CoachVoteReceived(address sender, VotingInterface.CoachVote vote);\r\n\r\n    // gets coaching candidates for voters to see\r\n    function getCoachingCandidates() external view returns (string[] memory) {\r\n        return candidateNames;\r\n    }\r\n\r\n    // checking that address of sender is valid\r\n    // adds proposal to array of coachingCandidates - initializes number of votes to 0\r\n    // adds name of candidate to candidateNames\r\n    // emitting event that proposal was received\r\n    function receiveCoachProposal(VotingInterface.Proposal memory proposal, uint ethAmount) external payable {\r\n        require(proposal.ownerAddress == msg.sender);\r\n\r\n        address[] memory beginVoterAddresses;\r\n        coachingCandidates.push(ProposalAndVotes(proposal,0,beginVoterAddresses));\r\n        candidateNames.push(proposal.candidate);\r\n\r\n        totalVotes = totalVotes.add(1);\r\n        totalMVCs = totalMVCs.add(4);\r\n\r\n        emit CoachProposalReceived(msg.sender, proposal, ethAmount);\r\n    }\r\n\r\n    // checking that address of sender is valid\r\n    // checking that type of vote is 'coach'\r\n    // check that the voter's choice is valid\r\n    // incrementing the number of votes for the coach candidate\r\n    // emitting event that vote was received\r\n    function receiveCoachVote(VotingInterface.CoachVote memory coachVote) external payable {\r\n        require(coachVote.ownerAddress == msg.sender);\r\n        require(keccak256(abi.encodePacked(coachVote.proposalType)) == keccak256(abi.encodePacked('coach')));\r\n        require(verifyVote(coachVote.candidate));\r\n\r\n        string memory voteCandidate = coachVote.candidate; // name of the candidate person voted for\r\n\r\n        for (uint i=0; i<coachingCandidates.length; i++){\r\n            if (keccak256(abi.encodePacked(coachingCandidates[i].proposal.candidate)) == keccak256(abi.encodePacked(voteCandidate))){\r\n                coachingCandidates[i].numOfVotes = coachingCandidates[i].numOfVotes.add(1);\r\n                coachingCandidates[i].voterAddresses.push(coachVote.ownerAddress);\r\n                break;\r\n            }\r\n        }\r\n\r\n        totalVotes = totalVotes.add(1);\r\n        totalMVCs = totalMVCs.add(2);\r\n\r\n        emit CoachVoteReceived(msg.sender, coachVote);\r\n    }\r\n\r\n    // verify that the voter's choice exists in the candidateNames array\r\n    function verifyVote(string memory _voterChoice) private view returns (bool) {\r\n        bool choiceExists = false;\r\n\r\n        for (uint i=0; i<candidateNames.length; i++){\r\n            if (keccak256(abi.encodePacked(_voterChoice)) == keccak256(abi.encodePacked(candidateNames[i]))){\r\n                choiceExists = true;\r\n                break;\r\n            }\r\n        }\r\n\r\n        return choiceExists;\r\n    }\r\n\r\n    // takes the coachingCandidate array and sorts it so that the candidates with the top 5 votes are returned (\"The Podium\")\r\n    // returning array has proposal with most votes at the beginning and fifth most votes at the end\r\n    function tallyCoachVotes() private returns (ProposalAndVotes[] memory) {\r\n\r\n        uint len = coachingCandidates.length;\r\n\r\n        for (uint i=0; i<len-1; i++){\r\n            for (uint j=0; j<len-i-1; j++){\r\n                if (coachingCandidates[j].numOfVotes < coachingCandidates[j+1].numOfVotes){\r\n                    ProposalAndVotes memory temp = coachingCandidates[j];\r\n                    coachingCandidates[j] = coachingCandidates[j+1];\r\n                    coachingCandidates[j+1] = temp;\r\n                }\r\n            }\r\n        }\r\n\r\n        ProposalAndVotes[] memory topFive = new ProposalAndVotes[](5);\r\n\r\n        for (uint i=0; i<5; i++){\r\n            if (i < len){\r\n                topFive[i] = coachingCandidates[i];\r\n            }\r\n        }\r\n\r\n        return topFive;\r\n    }\r\n\r\n    // distributes the totalMVC in the order specified in the README\r\n    // 1 MVC = 0.1 eth\r\n    function distributeMVCSafterVote(ProposalAndVotes[] memory topFive) private {\r\n        for (uint i=0; i<topFive.length; i++){ // rule 1\r\n            for (uint j=0; j<topFive[i].voterAddresses.length; j++){\r\n                address payable recipient = payable(topFive[i].voterAddresses[j]);\r\n                sendMVC(recipient, VotingMechanismAddress, 0.1 ether);\r\n            }\r\n            totalMVCs = totalMVCs.sub(topFive[i].voterAddresses.length);\r\n        }\r\n\r\n        uint conversion = 10;\r\n        uint initialPercent = 30;\r\n\r\n        for (uint k=0; k<topFive.length; k++){ // rules 2-6\r\n            uint percentage = initialPercent - k * 5;\r\n            uint amount = (totalMVCs*percentage/100)*conversion/100;\r\n\r\n            address payable recipient2 = payable(topFive[k].proposal.ownerAddress);\r\n            sendMVC(recipient2, VotingMechanismAddress, amount);\r\n        }\r\n\r\n        // the remaining MVCs are now DESTROYED!!!\r\n    }\r\n\r\n    function sendMVC(address payable _to, address _from, uint amount) public payable {\r\n        require(msg.sender == _from, \"Only the specified sender can call this function\");\r\n        require(address(this).balance >= amount, \"Insufficient balance in the contract\");\r\n\r\n        _to.transfer(amount);\r\n    }\r\n\r\n    function awardRepTokens(address _memberAddress, uint _tokens) external {\r\n        uint totalMembers = skolFaithful.getMembers().length;\r\n\r\n        for (uint i=0; i<totalMembers; i++){\r\n            SkolFaithful.Member memory member = skolFaithful.getMemberAtIndex(i);\r\n\r\n            if (member.owner == _memberAddress){\r\n                skolFaithful.updateRepTokens(i, _tokens);\r\n                return;\r\n            }\r\n        }\r\n    }\r\n    \r\n}",
  "sourcePath": "C:\\Users\\cooki\\OneDrive\\Documents\\Metro State Stuff\\690-Blockchain\\ics670-mn-vikings-dapp\\contracts\\CoachVotingMechanism.sol",
  "compiler": {
    "name": "solc",
    "version": "0.8.21+commit.d9974bed.Emscripten.clang"
  },
  "schemaVersion": "3.4.16",
  "updatedAt": "2024-03-17T23:22:43.669Z",
  "devdoc": {
    "kind": "dev",
    "methods": {},
    "version": 1
  },
  "userdoc": {
    "kind": "user",
    "methods": {},
    "version": 1
  }
}