{
  "contractName": "CoachVotingMechanism",
  "abi": [
    {
      "anonymous": false,
      "inputs": [
        {
          "indexed": false,
          "internalType": "address",
          "name": "sender",
          "type": "address"
        },
        {
          "components": [
            {
              "internalType": "address",
              "name": "ownerAddress",
              "type": "address"
            },
            {
              "internalType": "string",
              "name": "proposalType",
              "type": "string"
            },
            {
              "internalType": "string",
              "name": "candidate",
              "type": "string"
            }
          ],
          "indexed": false,
          "internalType": "struct VotingInterface.Proposal",
          "name": "proposal",
          "type": "tuple"
        }
      ],
      "name": "CoachProposalReceived",
      "type": "event"
    },
    {
      "anonymous": false,
      "inputs": [
        {
          "indexed": false,
          "internalType": "address",
          "name": "sender",
          "type": "address"
        },
        {
          "components": [
            {
              "internalType": "address",
              "name": "ownerAddress",
              "type": "address"
            },
            {
              "internalType": "string",
              "name": "proposalType",
              "type": "string"
            },
            {
              "internalType": "string",
              "name": "candidate",
              "type": "string"
            }
          ],
          "indexed": false,
          "internalType": "struct VotingInterface.CoachVote",
          "name": "vote",
          "type": "tuple"
        }
      ],
      "name": "CoachVoteReceived",
      "type": "event"
    },
    {
      "inputs": [
        {
          "internalType": "string",
          "name": "",
          "type": "string"
        }
      ],
      "name": "coachVoteCandidates",
      "outputs": [
        {
          "internalType": "address",
          "name": "owner",
          "type": "address"
        },
        {
          "internalType": "uint256",
          "name": "numOfVotes",
          "type": "uint256"
        }
      ],
      "stateMutability": "view",
      "type": "function"
    },
    {
      "inputs": [
        {
          "components": [
            {
              "internalType": "address",
              "name": "ownerAddress",
              "type": "address"
            },
            {
              "internalType": "string",
              "name": "proposalType",
              "type": "string"
            },
            {
              "internalType": "string",
              "name": "candidate",
              "type": "string"
            }
          ],
          "internalType": "struct VotingInterface.Proposal",
          "name": "proposal",
          "type": "tuple"
        }
      ],
      "name": "receiveCoachProposal",
      "outputs": [],
      "stateMutability": "payable",
      "type": "function"
    }
  ],
  "bytecode": "0x608060405234801561000f575f80fd5b506106a88061001d5f395ff3fe608060405260043610610028575f3560e01c806313b468c41461002c578063de3a9bc714610069575b5f80fd5b348015610037575f80fd5b50610052600480360381019061004d9190610340565b610085565b6040516100609291906103de565b60405180910390f35b610083600480360381019061007e91906104d0565b6100dc565b005b6001818051602081018201805184825260208301602085012081835280955050505050505f91509050805f015f9054906101000a900473ffffffffffffffffffffffffffffffffffffffff16908060010154905082565b3373ffffffffffffffffffffffffffffffffffffffff16815f015173ffffffffffffffffffffffffffffffffffffffff1614610116575f80fd5b6040518060400160405280825f015173ffffffffffffffffffffffffffffffffffffffff1681526020015f815250600182604001516040516101589190610583565b90815260200160405180910390205f820151815f015f6101000a81548173ffffffffffffffffffffffffffffffffffffffff021916908373ffffffffffffffffffffffffffffffffffffffff160217905550602082015181600101559050507fe897fe1af066184eb455ad8f39cc1aa4740b69620b852611ae7c12bf948a086e33826040516101e8929190610644565b60405180910390a150565b5f604051905090565b5f80fd5b5f80fd5b5f80fd5b5f80fd5b5f601f19601f8301169050919050565b7f4e487b71000000000000000000000000000000000000000000000000000000005f52604160045260245ffd5b6102528261020c565b810181811067ffffffffffffffff821117156102715761027061021c565b5b80604052505050565b5f6102836101f3565b905061028f8282610249565b919050565b5f67ffffffffffffffff8211156102ae576102ad61021c565b5b6102b78261020c565b9050602081019050919050565b828183375f83830152505050565b5f6102e46102df84610294565b61027a565b905082815260208101848484011115610300576102ff610208565b5b61030b8482856102c4565b509392505050565b5f82601f83011261032757610326610204565b5b81356103378482602086016102d2565b91505092915050565b5f60208284031215610355576103546101fc565b5b5f82013567ffffffffffffffff81111561037257610371610200565b5b61037e84828501610313565b91505092915050565b5f73ffffffffffffffffffffffffffffffffffffffff82169050919050565b5f6103b082610387565b9050919050565b6103c0816103a6565b82525050565b5f819050919050565b6103d8816103c6565b82525050565b5f6040820190506103f15f8301856103b7565b6103fe60208301846103cf565b9392505050565b5f80fd5b5f80fd5b610416816103a6565b8114610420575f80fd5b50565b5f813590506104318161040d565b92915050565b5f6060828403121561044c5761044b610405565b5b610456606061027a565b90505f61046584828501610423565b5f83015250602082013567ffffffffffffffff81111561048857610487610409565b5b61049484828501610313565b602083015250604082013567ffffffffffffffff8111156104b8576104b7610409565b5b6104c484828501610313565b60408301525092915050565b5f602082840312156104e5576104e46101fc565b5b5f82013567ffffffffffffffff81111561050257610501610200565b5b61050e84828501610437565b91505092915050565b5f81519050919050565b5f81905092915050565b5f5b8381101561054857808201518184015260208101905061052d565b5f8484015250505050565b5f61055d82610517565b6105678185610521565b935061057781856020860161052b565b80840191505092915050565b5f61058e8284610553565b915081905092915050565b6105a2816103a6565b82525050565b5f82825260208201905092915050565b5f6105c282610517565b6105cc81856105a8565b93506105dc81856020860161052b565b6105e58161020c565b840191505092915050565b5f606083015f8301516106055f860182610599565b506020830151848203602086015261061d82826105b8565b9150506040830151848203604086015261063782826105b8565b9150508091505092915050565b5f6040820190506106575f8301856103b7565b818103602083015261066981846105f0565b9050939250505056fea2646970667358221220658682d910232b189688babab291f5a4647b4b86cdd3200817e3300c89b7de9064736f6c63430008150033",
  "immutableReferences": {},
  "source": "// SPDX-License-Identifier: UNLICENSED\r\npragma solidity ^0.8.19;\r\n\r\nimport \"./safemath.sol\";\r\nimport \"./VotingInterface.sol\";\r\n\r\ncontract CoachVotingMechanism {\r\n\r\n    using SafeMath for uint;\r\n\r\n    uint totalVotes;\r\n\r\n    // the key of the headCoachVote map\r\n    struct OwnerAndVotes {\r\n        address owner;\r\n        uint numOfVotes;\r\n    }\r\n\r\n    // a map of the head coach candidates being voted on, the number of votes, and the associated owner of the proposal\r\n    // key: string of coach name\r\n    // value: OwnerAndVotes struct\r\n    mapping (string => OwnerAndVotes) public coachVoteCandidates;\r\n\r\n    event CoachProposalReceived(address sender, VotingInterface.Proposal proposal);\r\n    event CoachVoteReceived(address sender, VotingInterface.CoachVote vote);\r\n\r\n    // checking that address of sender is valid\r\n    // creates candidate in coach map like so\r\n    // key = Bill Belichick, value = {owner = 123, numOfVotes = 0}\r\n    // emitting event that vote was received\r\n    function receiveCoachProposal(VotingInterface.Proposal memory proposal) external payable {\r\n        require(proposal.ownerAddress == msg.sender);\r\n        coachVoteCandidates[proposal.candidate] = OwnerAndVotes(proposal.ownerAddress,0);\r\n\r\n        emit CoachProposalReceived(msg.sender, proposal);\r\n    }\r\n\r\n    // checking that address of sender is valid\r\n    // checking that type of vote is 'coach'\r\n    // incrementing the vote for the coach candidate\r\n    // emitting event that vote was received\r\n    function receiveCoachVote(VotingInterface.CoachVote memory coachVote) private {\r\n        require(coachVote.ownerAddress == msg.sender);\r\n        require(keccak256(abi.encodePacked(coachVote.proposalType)) == keccak256(abi.encodePacked('coach')));\r\n\r\n        OwnerAndVotes memory tempStruct = coachVoteCandidates[coachVote.candidate];\r\n        tempStruct.numOfVotes = tempStruct.numOfVotes.add(1);\r\n\r\n        totalVotes = totalVotes.add(1);\r\n\r\n        emit CoachVoteReceived(msg.sender, coachVote);\r\n    }\r\n    \r\n}",
  "sourcePath": "C:\\Users\\cooki\\OneDrive\\Documents\\Metro State Stuff\\690-Blockchain\\ics670-mn-vikings-dapp\\contracts\\CoachVotingMechanism.sol",
  "compiler": {
    "name": "solc",
    "version": "0.8.21+commit.d9974bed.Emscripten.clang"
  },
  "schemaVersion": "3.4.16",
  "updatedAt": "2024-02-18T18:39:24.732Z",
  "devdoc": {
    "kind": "dev",
    "methods": {},
    "version": 1
  },
  "userdoc": {
    "kind": "user",
    "methods": {},
    "version": 1
  }
}