{
  "contractName": "SkolFaithful",
  "abi": [
    {
      "anonymous": false,
      "inputs": [
        {
          "indexed": false,
          "internalType": "address",
          "name": "sender",
          "type": "address"
        },
        {
          "components": [
            {
              "internalType": "address",
              "name": "owner",
              "type": "address"
            },
            {
              "internalType": "uint256",
              "name": "mvcs",
              "type": "uint256"
            },
            {
              "internalType": "uint256",
              "name": "repTokens",
              "type": "uint256"
            }
          ],
          "indexed": false,
          "internalType": "struct SkolFaithful.Member",
          "name": "member",
          "type": "tuple"
        }
      ],
      "name": "MemberAdded",
      "type": "event"
    },
    {
      "anonymous": false,
      "inputs": [
        {
          "indexed": true,
          "internalType": "address",
          "name": "memberAddress",
          "type": "address"
        },
        {
          "indexed": false,
          "internalType": "uint256",
          "name": "tokens",
          "type": "uint256"
        }
      ],
      "name": "RepTokensAwarded",
      "type": "event"
    },
    {
      "inputs": [
        {
          "internalType": "uint256",
          "name": "",
          "type": "uint256"
        }
      ],
      "name": "skolFaithful",
      "outputs": [
        {
          "internalType": "address",
          "name": "owner",
          "type": "address"
        },
        {
          "internalType": "uint256",
          "name": "mvcs",
          "type": "uint256"
        },
        {
          "internalType": "uint256",
          "name": "repTokens",
          "type": "uint256"
        }
      ],
      "stateMutability": "view",
      "type": "function"
    },
    {
      "inputs": [],
      "name": "getMembers",
      "outputs": [
        {
          "components": [
            {
              "internalType": "address",
              "name": "owner",
              "type": "address"
            },
            {
              "internalType": "uint256",
              "name": "mvcs",
              "type": "uint256"
            },
            {
              "internalType": "uint256",
              "name": "repTokens",
              "type": "uint256"
            }
          ],
          "internalType": "struct SkolFaithful.Member[]",
          "name": "",
          "type": "tuple[]"
        }
      ],
      "stateMutability": "view",
      "type": "function"
    },
    {
      "inputs": [
        {
          "internalType": "uint256",
          "name": "_index",
          "type": "uint256"
        }
      ],
      "name": "getMemberAtIndex",
      "outputs": [
        {
          "components": [
            {
              "internalType": "address",
              "name": "owner",
              "type": "address"
            },
            {
              "internalType": "uint256",
              "name": "mvcs",
              "type": "uint256"
            },
            {
              "internalType": "uint256",
              "name": "repTokens",
              "type": "uint256"
            }
          ],
          "internalType": "struct SkolFaithful.Member",
          "name": "",
          "type": "tuple"
        }
      ],
      "stateMutability": "view",
      "type": "function"
    },
    {
      "inputs": [
        {
          "internalType": "uint256",
          "name": "_index",
          "type": "uint256"
        },
        {
          "internalType": "uint256",
          "name": "_additionalTokens",
          "type": "uint256"
        }
      ],
      "name": "updateRepTokens",
      "outputs": [],
      "stateMutability": "nonpayable",
      "type": "function"
    },
    {
      "inputs": [
        {
          "internalType": "address",
          "name": "_repSystemCallAddress",
          "type": "address"
        },
        {
          "internalType": "address",
          "name": "_memberAddress",
          "type": "address"
        },
        {
          "internalType": "uint256",
          "name": "_repTokenAmount",
          "type": "uint256"
        }
      ],
      "name": "triggerAwardRepTokens",
      "outputs": [],
      "stateMutability": "nonpayable",
      "type": "function"
    }
  ],
  "bytecode": "0x608060405234801561000f575f80fd5b506108af8061001d5f395ff3fe608060405234801561000f575f80fd5b5060043610610055575f3560e01c806348742fba146100595780639eab525314610075578063bbab818d14610093578063e5ce4ef4146100af578063f8024d10146100e1575b5f80fd5b610073600480360381019061006e91906104c2565b610111565b005b61007d61017e565b60405161008a9190610618565b60405180910390f35b6100ad60048036038101906100a89190610638565b610241565b005b6100c960048036038101906100c49190610676565b6102c3565b6040516100d8939291906106bf565b60405180910390f35b6100fb60048036038101906100f69190610676565b610316565b6040516101089190610734565b60405180910390f35b8273ffffffffffffffffffffffffffffffffffffffff16635051af4e83836040518363ffffffff1660e01b815260040161014c92919061074d565b5f604051808303815f87803b158015610163575f80fd5b505af1158015610175573d5f803e3d5ffd5b50505050505050565b60605f805480602002602001604051908101604052809291908181526020015f905b82821015610238578382905f5260205f2090600302016040518060600160405290815f82015f9054906101000a900473ffffffffffffffffffffffffffffffffffffffff1673ffffffffffffffffffffffffffffffffffffffff1673ffffffffffffffffffffffffffffffffffffffff16815260200160018201548152602001600282015481525050815260200190600101906101a0565b50505050905090565b5f805490508210610287576040517f08c379a000000000000000000000000000000000000000000000000000000000815260040161027e906107ce565b60405180910390fd5b805f838154811061029b5761029a6107ec565b5b905f5260205f2090600302016002015f8282546102b89190610846565b925050819055505050565b5f81815481106102d1575f80fd5b905f5260205f2090600302015f91509050805f015f9054906101000a900473ffffffffffffffffffffffffffffffffffffffff16908060010154908060020154905083565b61031e6103fd565b5f805490508210610364576040517f08c379a000000000000000000000000000000000000000000000000000000000815260040161035b906107ce565b60405180910390fd5b5f8281548110610377576103766107ec565b5b905f5260205f2090600302016040518060600160405290815f82015f9054906101000a900473ffffffffffffffffffffffffffffffffffffffff1673ffffffffffffffffffffffffffffffffffffffff1673ffffffffffffffffffffffffffffffffffffffff168152602001600182015481526020016002820154815250509050919050565b60405180606001604052805f73ffffffffffffffffffffffffffffffffffffffff1681526020015f81526020015f81525090565b5f80fd5b5f73ffffffffffffffffffffffffffffffffffffffff82169050919050565b5f61045e82610435565b9050919050565b61046e81610454565b8114610478575f80fd5b50565b5f8135905061048981610465565b92915050565b5f819050919050565b6104a18161048f565b81146104ab575f80fd5b50565b5f813590506104bc81610498565b92915050565b5f805f606084860312156104d9576104d8610431565b5b5f6104e68682870161047b565b93505060206104f78682870161047b565b9250506040610508868287016104ae565b9150509250925092565b5f81519050919050565b5f82825260208201905092915050565b5f819050602082019050919050565b61054481610454565b82525050565b6105538161048f565b82525050565b606082015f82015161056d5f85018261053b565b506020820151610580602085018261054a565b506040820151610593604085018261054a565b50505050565b5f6105a48383610559565b60608301905092915050565b5f602082019050919050565b5f6105c682610512565b6105d0818561051c565b93506105db8361052c565b805f5b8381101561060b5781516105f28882610599565b97506105fd836105b0565b9250506001810190506105de565b5085935050505092915050565b5f6020820190508181035f83015261063081846105bc565b905092915050565b5f806040838503121561064e5761064d610431565b5b5f61065b858286016104ae565b925050602061066c858286016104ae565b9150509250929050565b5f6020828403121561068b5761068a610431565b5b5f610698848285016104ae565b91505092915050565b6106aa81610454565b82525050565b6106b98161048f565b82525050565b5f6060820190506106d25f8301866106a1565b6106df60208301856106b0565b6106ec60408301846106b0565b949350505050565b606082015f8201516107085f85018261053b565b50602082015161071b602085018261054a565b50604082015161072e604085018261054a565b50505050565b5f6060820190506107475f8301846106f4565b92915050565b5f6040820190506107605f8301856106a1565b61076d60208301846106b0565b9392505050565b5f82825260208201905092915050565b7f496e646578206f7574206f6620626f756e6473000000000000000000000000005f82015250565b5f6107b8601383610774565b91506107c382610784565b602082019050919050565b5f6020820190508181035f8301526107e5816107ac565b9050919050565b7f4e487b71000000000000000000000000000000000000000000000000000000005f52603260045260245ffd5b7f4e487b71000000000000000000000000000000000000000000000000000000005f52601160045260245ffd5b5f6108508261048f565b915061085b8361048f565b925082820190508082111561087357610872610819565b5b9291505056fea26469706673582212204a873ccab1a8b05602d343b55e9cc443400271e5f237e2153cb8d69e45ac3a4364736f6c63430008150033",
  "immutableReferences": {},
  "source": "// SPDX-License-Identifier: UNLICENSED\r\npragma solidity ^0.8.19;\r\n\r\nimport \"./RepSystemInterface.sol\";\r\n\r\ncontract SkolFaithful {\r\n    struct Member {\r\n        address owner;\r\n        uint mvcs;\r\n        uint repTokens;\r\n    }\r\n\r\n    Member[] public skolFaithful;\r\n\r\n    function getMembers() external view returns (Member[] memory){\r\n        return skolFaithful;\r\n    }\r\n\r\n    event MemberAdded(address sender, Member member);\r\n    function addMember(address _owner) private {\r\n        Member memory fan = Member(_owner,4,0);\r\n        skolFaithful.push(fan);\r\n        emit MemberAdded(_owner,fan);\r\n    }\r\n\r\n    function getMemberAtIndex(uint _index) external view returns (Member memory) {\r\n        require(_index < skolFaithful.length, \"Index out of bounds\");\r\n        return skolFaithful[_index];\r\n    }\r\n\r\n    event RepTokensAwarded(address indexed memberAddress, uint tokens);\r\n\r\n    function updateRepTokens(uint _index, uint _additionalTokens) external {\r\n        require(_index < skolFaithful.length, \"Index out of bounds\");\r\n        skolFaithful[_index].repTokens += _additionalTokens; // Add the additional tokens to the existing repTokens\r\n    }\r\n\r\n    function triggerAwardRepTokens(address _repSystemCallAddress, address _memberAddress, uint _repTokenAmount) external {\r\n        RepSystemInterface(_repSystemCallAddress).awardRepTokens(_memberAddress, _repTokenAmount);\r\n    }\r\n}",
  "sourcePath": "C:\\Users\\cooki\\OneDrive\\Documents\\Metro State Stuff\\690-Blockchain\\ics670-mn-vikings-dapp\\contracts\\SkolFaithful.sol",
  "compiler": {
    "name": "solc",
    "version": "0.8.21+commit.d9974bed.Emscripten.clang"
  },
  "schemaVersion": "3.4.16",
  "updatedAt": "2024-03-14T05:21:03.291Z",
  "devdoc": {
    "kind": "dev",
    "methods": {},
    "version": 1
  },
  "userdoc": {
    "kind": "user",
    "methods": {},
    "version": 1
  }
}