{
  "contractName": "SkolFaithful",
  "abi": [
    {
      "anonymous": false,
      "inputs": [
        {
          "indexed": false,
          "internalType": "address",
          "name": "sender",
          "type": "address"
        },
        {
          "components": [
            {
              "internalType": "address",
              "name": "owner",
              "type": "address"
            },
            {
              "internalType": "uint256",
              "name": "mvcs",
              "type": "uint256"
            },
            {
              "internalType": "uint256",
              "name": "repTokens",
              "type": "uint256"
            }
          ],
          "indexed": false,
          "internalType": "struct SkolFaithful.Member",
          "name": "member",
          "type": "tuple"
        }
      ],
      "name": "MemberAdded",
      "type": "event"
    },
    {
      "inputs": [
        {
          "internalType": "uint256",
          "name": "",
          "type": "uint256"
        }
      ],
      "name": "skolFaithful",
      "outputs": [
        {
          "internalType": "address",
          "name": "owner",
          "type": "address"
        },
        {
          "internalType": "uint256",
          "name": "mvcs",
          "type": "uint256"
        },
        {
          "internalType": "uint256",
          "name": "repTokens",
          "type": "uint256"
        }
      ],
      "stateMutability": "view",
      "type": "function"
    },
    {
      "inputs": [],
      "name": "getMembers",
      "outputs": [
        {
          "components": [
            {
              "internalType": "address",
              "name": "owner",
              "type": "address"
            },
            {
              "internalType": "uint256",
              "name": "mvcs",
              "type": "uint256"
            },
            {
              "internalType": "uint256",
              "name": "repTokens",
              "type": "uint256"
            }
          ],
          "internalType": "struct SkolFaithful.Member[]",
          "name": "",
          "type": "tuple[]"
        }
      ],
      "stateMutability": "view",
      "type": "function"
    }
  ],
  "bytecode": "0x608060405234801561000f575f80fd5b506103df8061001d5f395ff3fe608060405234801561000f575f80fd5b5060043610610034575f3560e01c80639eab525314610038578063e5ce4ef414610056575b5f80fd5b610040610088565b60405161004d91906102dd565b60405180910390f35b610070600480360381019061006b919061032b565b61014b565b60405161007f93929190610374565b60405180910390f35b60605f805480602002602001604051908101604052809291908181526020015f905b82821015610142578382905f5260205f2090600302016040518060600160405290815f82015f9054906101000a900473ffffffffffffffffffffffffffffffffffffffff1673ffffffffffffffffffffffffffffffffffffffff1673ffffffffffffffffffffffffffffffffffffffff16815260200160018201548152602001600282015481525050815260200190600101906100aa565b50505050905090565b5f8181548110610159575f80fd5b905f5260205f2090600302015f91509050805f015f9054906101000a900473ffffffffffffffffffffffffffffffffffffffff16908060010154908060020154905083565b5f81519050919050565b5f82825260208201905092915050565b5f819050602082019050919050565b5f73ffffffffffffffffffffffffffffffffffffffff82169050919050565b5f6101f0826101c7565b9050919050565b610200816101e6565b82525050565b5f819050919050565b61021881610206565b82525050565b606082015f8201516102325f8501826101f7565b506020820151610245602085018261020f565b506040820151610258604085018261020f565b50505050565b5f610269838361021e565b60608301905092915050565b5f602082019050919050565b5f61028b8261019e565b61029581856101a8565b93506102a0836101b8565b805f5b838110156102d05781516102b7888261025e565b97506102c283610275565b9250506001810190506102a3565b5085935050505092915050565b5f6020820190508181035f8301526102f58184610281565b905092915050565b5f80fd5b61030a81610206565b8114610314575f80fd5b50565b5f8135905061032581610301565b92915050565b5f602082840312156103405761033f6102fd565b5b5f61034d84828501610317565b91505092915050565b61035f816101e6565b82525050565b61036e81610206565b82525050565b5f6060820190506103875f830186610356565b6103946020830185610365565b6103a16040830184610365565b94935050505056fea2646970667358221220389c17d229657df0450e43dff16ea383bbd7a8691282660362114d53c8b4496c64736f6c63430008150033",
  "immutableReferences": {},
  "source": "// SPDX-License-Identifier: UNLICENSED\r\npragma solidity ^0.8.19;\r\n\r\ncontract SkolFaithful {\r\n    struct Member {\r\n        address owner;\r\n        uint mvcs;\r\n        uint repTokens;\r\n    }\r\n\r\n    Member[] public skolFaithful;\r\n\r\n    function getMembers() external view returns (Member[] memory){\r\n        return skolFaithful;\r\n    }\r\n\r\n    event MemberAdded(address sender, Member member);\r\n    function addMember(address _owner) private {\r\n        Member memory fan = Member(_owner,4,0);\r\n        skolFaithful.push(fan);\r\n        emit MemberAdded(_owner,fan);\r\n    }\r\n}",
  "sourcePath": "C:\\Users\\cooki\\OneDrive\\Documents\\Metro State Stuff\\690-Blockchain\\ics670-mn-vikings-dapp\\contracts\\SkolFaithful.sol",
  "compiler": {
    "name": "solc",
    "version": "0.8.21+commit.d9974bed.Emscripten.clang"
  },
  "schemaVersion": "3.4.16",
  "updatedAt": "2024-03-04T06:07:22.474Z",
  "devdoc": {
    "kind": "dev",
    "methods": {},
    "version": 1
  },
  "userdoc": {
    "kind": "user",
    "methods": {},
    "version": 1
  }
}